{"abi":[{"type":"constructor","inputs":[],"stateMutability":"nonpayable"},{"type":"function","name":"game","inputs":[],"outputs":[{"name":"","type":"address","internalType":"contract Blackjack"}],"stateMutability":"view"},{"type":"function","name":"getPhase","inputs":[],"outputs":[{"name":"","type":"uint8","internalType":"enum BlackjackController.Phase"}],"stateMutability":"view"},{"type":"function","name":"reset","inputs":[],"outputs":[],"stateMutability":"nonpayable"},{"type":"function","name":"roundId","inputs":[],"outputs":[{"name":"","type":"uint256","internalType":"uint256"}],"stateMutability":"view"},{"type":"function","name":"setup","inputs":[],"outputs":[{"name":"","type":"address","internalType":"contract Setup"}],"stateMutability":"view"},{"type":"function","name":"startGame","inputs":[],"outputs":[],"stateMutability":"nonpayable"},{"type":"function","name":"verify","inputs":[],"outputs":[{"name":"","type":"address","internalType":"contract Verify"}],"stateMutability":"view"},{"type":"function","name":"verifyGame","inputs":[],"outputs":[],"stateMutability":"nonpayable"}],"bytecode":{"object":"0x60a060405234801561000f575f5ffd5b503360805260405161002090610226565b604051809103905ff080158015610039573d5f5f3e3d5ffd5b50600480546001600160a01b0319166001600160a01b03929092169182179055608051604051909190309061006d90610233565b6001600160a01b03938416815291831660208301529091166040820152606001604051809103905ff0801580156100a6573d5f5f3e3d5ffd5b50600280546001600160a01b0319166001600160a01b039290921691909117905560805160405130906100d890610240565b6001600160a01b03928316815291166020820152604001604051809103905ff080158015610108573d5f5f3e3d5ffd5b50600380546001600160a01b0319166001600160a01b03929092169190911790555f805460ff1916905561013a61013f565b610271565b6101476101c8565b60018054905f6101568361024d565b90915550506002546001546040516395805dad60e01b81526001600160a01b03909216916395805dad916101909160040190815260200190565b5f604051808303815f87803b1580156101a7575f5ffd5b505af11580156101b9573d5f5f3e3d5ffd5b50505f805460ff191690555050565b6080516001600160a01b0316336001600160a01b0316146102245760405162461bcd60e51b81526020600482015260126024820152711bdb9b1e481a1bdd5cd948185b1b1bddd95960721b604482015260640160405180910390fd5b565b61107b80610a6383390190565b61344080611ade83390190565b6120a780614f1e83390190565b5f6001820161026a57634e487b7160e01b5f52601160045260245ffd5b5060010190565b6080516107da6102895f395f61057e01526107da5ff3fe608060405234801561000f575f5ffd5b5060043610610085575f3560e01c8063d65ab5f211610058578063d65ab5f2146100ed578063d826f88f146100f5578063eced0280146100fd578063fc735e991461010f575f5ffd5b80638cd221c914610089578063b1055add146100a5578063ba0bba40146100af578063c3fe3e28146100da575b5f5ffd5b61009260015481565b6040519081526020015b60405180910390f35b6100ad610122565b005b6002546100c2906001600160a01b031681565b6040516001600160a01b03909116815260200161009c565b6003546100c2906001600160a01b031681565b6100ad61020f565b6100ad6104ea565b5f5460ff1660405161009c91906105f4565b6004546100c2906001600160a01b031681565b6002546040805163dc05c75b60e01b815290515f926001600160a01b03169163dc05c75b9160048083019260209291908290030181865afa158015610169573d5f5f3e3d5ffd5b505050506040513d601f19601f8201168201806040525081019061018d919061061a565b60048054600154600354604051633c41def760e01b8152938401919091526001600160a01b039081166024840152604483018490529293509190911690633c41def7906064015f604051808303815f87803b1580156101ea575f5ffd5b505af11580156101fc573d5f5f3e3d5ffd5b50505f805460ff19166002179055505050565b610217610573565b5f5f5460ff16600281111561022e5761022e6105e0565b1461028c5760405162461bcd60e51b8152602060048201526024808201527f6d75737420626520696e20736574757020706861736520746f2073746172742060448201526367616d6560e01b60648201526084015b60405180910390fd5b60025460408051636c4470fb60e01b815290515f926001600160a01b031691636c4470fb91600480830192869291908290030181865afa1580156102d2573d5f5f3e3d5ffd5b505050506040513d5f823e601f3d908101601f191682016040526102f99190810190610660565b905080515f0361030e5761030b6104ea565b50565b5f5b815181101561032157600101610310565b505f805460ff19166001178155600254604080516334fedced60e21b815290516001600160a01b039092169163d3fb73b4916004808201926020929091908290030181865afa158015610376573d5f5f3e3d5ffd5b505050506040513d601f19601f8201168201806040525081019061039a919061061a565b90505f8190036104385760405162461bcd60e51b815260206004820152605760248201527f616e63686f72206e6f74207365742b2b2b2b2b2b2b2b2b2b2b2b2b2b2b2b2b2b60448201527f2b2b2b2b2b2b2b2b2b2b2b2b2b2b2b2b2b2b2b2b2b2b2b2b2b2b2b2b2b2b2b2b60648201527f2b2b2b2b2b2b2b2b2b2b2b2b2b2b2b2b2b2b2b2b2b2b2b000000000000000000608482015260a401610283565b60035460405163089c343760e01b81526001600160a01b039091169063089c34379061046a908590859060040161072b565b5f604051808303815f87803b158015610481575f5ffd5b505af1158015610493573d5f5f3e3d5ffd5b50505f805460ff1916600117815583900391506104e590505760405162461bcd60e51b815260206004820152600e60248201526d185b98da1bdc881b9bdd081cd95d60921b6044820152606401610283565b50505b565b6104f2610573565b60018054905f61050183610780565b90915550506002546001546040516395805dad60e01b81526001600160a01b03909216916395805dad9161053b9160040190815260200190565b5f604051808303815f87803b158015610552575f5ffd5b505af1158015610564573d5f5f3e3d5ffd5b50505f805460ff191690555050565b336001600160a01b037f000000000000000000000000000000000000000000000000000000000000000016146104e85760405162461bcd60e51b81526020600482015260126024820152711bdb9b1e481a1bdd5cd948185b1b1bddd95960721b6044820152606401610283565b634e487b7160e01b5f52602160045260245ffd5b602081016003831061061457634e487b7160e01b5f52602160045260245ffd5b91905290565b5f6020828403121561062a575f5ffd5b5051919050565b634e487b7160e01b5f52604160045260245ffd5b80516001600160a01b038116811461065b575f5ffd5b919050565b5f60208284031215610670575f5ffd5b815167ffffffffffffffff811115610686575f5ffd5b8201601f81018413610696575f5ffd5b805167ffffffffffffffff8111156106b0576106b0610631565b8060051b604051601f19603f830116810181811067ffffffffffffffff821117156106dd576106dd610631565b6040529182526020818401810192908101878411156106fa575f5ffd5b6020850194505b838510156107205761071285610645565b815260209485019401610701565b509695505050505050565b604080825283519082018190525f9060208501906060840190835b8181101561076d5783516001600160a01b0316835260209384019390920191600101610746565b5050602093909301939093525092915050565b5f6001820161079d57634e487b7160e01b5f52601160045260245ffd5b506001019056fea2646970667358221220634ca72a941e6a4f1f5933fdfbcc4b6766278e31d5ce7cee073b8c5e8d69a44364736f6c634300081e00336080604052348015600e575f5ffd5b5061105f8061001c5f395ff3fe608060405260043610610041575f3560e01c806316ef376b1461004c5780633c41def71461007d578063b7a5a5b61461009e578063e671464d146100bd575f5ffd5b3661004857005b5f5ffd5b348015610057575f5ffd5b5061006b610066366004610e20565b6100dc565b60405190815260200160405180910390f35b348015610088575f5ffd5b5061009c610097366004610e4b565b61010f565b005b3480156100a9575f5ffd5b5061009c6100b8366004610e20565b610266565b3480156100c8575f5ffd5b5061009c6100d7366004610e80565b61057a565b5f8181526020819052604081206004015442906100fb90601e90610ebd565b1061010757505f919050565b506001919050565b60028390555f838152600160208181526040808420805460ff19169093179092558281529181902042600480830191909155600582018054610100600160a81b0319166101006001600160a01b038981168202929092179283905585516323acb8b160e11b815295519496920416936347597162938184019390918290030181865afa1580156101a1573d5f5f3e3d5ffd5b505050506040513d601f19601f820116820180604052508101906101c59190610ed6565b81546001600160a01b0319166001600160a01b0391821617825560058201546040805163c169654160e01b815290516101009092049092169163c16965419160048083019260209291908290030181865afa158015610226573d5f5f3e3d5ffd5b505050506040513d601f19601f8201168201806040525081019061024a9190610ef8565b60018201556002810191909155600501805460ff191690555050565b5f8181526001602052604090205460ff166102c15760405162461bcd60e51b81526020600482015260166024820152751cd95cdcda5bdb88191bd95cc81b9bdd08195e1a5cdd60521b60448201526064015b60405180910390fd5b5f8181526020819052604090206004015442906102e090601e90610ebd565b11156103275760405162461bcd60e51b81526020600482015260166024820152751d995c9a599e481a185cc81b9bdd081cdd185c9d195960521b60448201526064016102b8565b5f8181526020819052604090206005015460ff16156103885760405162461bcd60e51b815260206004820152601d60248201527f67616d652063616e20616c7265616479206265207061796564206f757400000060448201526064016102b8565b5f8181526020819052604090206003015460ff16156103af576103aa81610946565b61055d565b5f818152602081905260408082206005015490516001621c132960e21b03198152600481018490526101009091046001600160a01b03169190829063ff8fb35c90602401602060405180830381865afa15801561040e573d5f5f3e3d5ffd5b505050506040513d601f19601f820116820180604052508101906104329190610ef8565b90505f5b818110156105595760405163d42feff360e01b815260048101859052602481018290525f9081906001600160a01b0386169063d42feff390604401608060405180830381865afa15801561048c573d5f5f3e3d5ffd5b505050506040513d601f19601f820116820180604052508101906104b09190610f0f565b5050915091505f826001600160a01b0316826040515f6040518083038185875af1925050503d805f81146104ff576040519150601f19603f3d011682016040523d82523d5f602084013e610504565b606091505b505090508061054e5760405162461bcd60e51b81526020600482015260166024820152751499599d5b99081d1c985b9cd9995c8819985a5b195960521b60448201526064016102b8565b505050600101610436565b5050505b5f908152602081905260409020600501805460ff19166001179055565b604080518082018252601081526f3b32b934b33cb4b7339030b731b437b960811b6020808301919091525f868152600190915291909120546105bf919060ff16610ca1565b5f8381526001602052604090205460ff166106155760405162461bcd60e51b81526020600482015260166024820152751cd95cdcda5bdb88191bd95cc81b9bdd08195e1a5cdd60521b60448201526064016102b8565b6106676040518060400160405280600e81526020016d736573736f696e2065786973747360901b81525042601e5f5f8881526020019081526020015f20600401546106609190610ebd565b1015610ca1565b5f83815260208190526040902060040154429061068690601e90610ebd565b10156106cc5760405162461bcd60e51b81526020600482015260156024820152743b32b934b33c903832b934b7b21034b99037bb32b960591b60448201526064016102b8565b60408051808201825260168152753b32b934b33c903832b934b7b2103737ba1037bb32b960511b6020808301919091525f86815290819052919091205461071e91906001600160a01b03163314610ca1565b5f838152602081905260409020546001600160a01b031633146107785760405162461bcd60e51b81526020600482015260126024820152711bdb9b1e481a1bdd5cd948185b1b1bddd95960721b60448201526064016102b8565b6107a36040518060400160405280600a8152602001696e746f20686f7075736560b01b815250610cea565b5f838152602081905260409020600201546107be9083610d30565b5f8381526020818152604080832060020154815192830152810184905260600160408051601f198184030181528282528051602091820120838301909252600a8352690ccd2e4e6e840d0c2e6d60b31b90830152915061081e9082610d77565b610846604051806040016040528060068152602001650d8cadccee8d60d31b81525083610d77565b5f5b828110156108875760408051602081018490520160405160208183030381529060405280519060200120915061087f825f1c610dbc565b600101610848565b505f8481526020819052604090206001015481146108f95760405162461bcd60e51b815260206004820152602960248201527f66696e616c20616e63686f7220646f6573206e6f74206d617463682063616c756044820152686c61746564206f6e6560b81b60648201526084016102b8565b6109266040518060400160405280600c81526020016b68617368206d61746368657360a01b815250610cea565b5050505f908152602081905260409020600301805460ff19166001179055565b5f818152602081905260408082206005015490516325d73b7560e21b8152600481018490526101009091046001600160a01b03169190829063975cedd490602401602060405180830381865afa1580156109a2573d5f5f3e3d5ffd5b505050506040513d601f19601f820116820180604052508101906109c69190610ef8565b90506015808211905f9083148015610a44575060405163a60174c960e01b8152600481018690526001600160a01b0385169063a60174c990602401602060405180830381865afa158015610a1c573d5f5f3e3d5ffd5b505050506040513d601f19601f82011682018060405250810190610a409190610ef8565b6002145b90505f846001600160a01b031663ff8fb35c6002546040518263ffffffff1660e01b8152600401610a7791815260200190565b602060405180830381865afa158015610a92573d5f5f3e3d5ffd5b505050506040513d601f19601f82011682018060405250810190610ab69190610ef8565b90505f5b81811015610c985760405163d42feff360e01b815260048101889052602481018290525f908190819081906001600160a01b038b169063d42feff390604401608060405180830381865afa158015610b14573d5f5f3e3d5ffd5b505050506040513d601f19601f82011682018060405250810190610b389190610f0f565b929650909450925090505f806003836004811115610b5857610b58610f5b565b03610b6457505f610be6565b6004836004811115610b7857610b78610f5b565b03610bb7578815610b8b57849150610be6565b6002610b98866003610f6f565b610ba29190610f86565b610bac9086610ebd565b915060019050610be6565b8915610bc857610bac856002610f6f565b8a841115610bdb57610bac856002610f6f565b8a8403610be6578491505b8115610c86575f866001600160a01b0316836040515f6040518083038185875af1925050503d805f8114610c35576040519150601f19603f3d011682016040523d82523d5f602084013e610c3a565b606091505b5050905080610c845760405162461bcd60e51b815260206004820152601660248201527514185e5bdd5d081d1c985b9cd9995c8819985a5b195960521b60448201526064016102b8565b505b505060019094019350610aba92505050565b50505050505050565b610ce68282604051602401610cb7929190610fd3565b60408051601f198184030181529190526020810180516001600160e01b031663c3b5563560e01b179052610dfd565b5050565b610d2d81604051602401610cfe9190610ff6565b60408051601f198184030181529190526020810180516001600160e01b031663104c13eb60e21b179052610dfd565b50565b6040516024810183905260448101829052610ce69060640160408051601f198184030181529190526020810180516001600160e01b0316637b3338ad60e11b179052610dfd565b610ce68282604051602401610d8d929190611008565b60408051601f198184030181529190526020810180516001600160e01b0316632d839cb360e21b179052610dfd565b610d2d81604051602401610dd291815260200190565b60408051601f198184030181529190526020810180516001600160e01b031663f82c50f160e01b1790525b610d2d815f6a636f6e736f6c652e6c6f6790505f5f835160208501845afa505050565b5f60208284031215610e30575f5ffd5b5035919050565b6001600160a01b0381168114610d2d575f5ffd5b5f5f5f60608486031215610e5d575f5ffd5b833592506020840135610e6f81610e37565b929592945050506040919091013590565b5f5f5f60608486031215610e92575f5ffd5b505081359360208301359350604090920135919050565b634e487b7160e01b5f52601160045260245ffd5b80820180821115610ed057610ed0610ea9565b92915050565b5f60208284031215610ee6575f5ffd5b8151610ef181610e37565b9392505050565b5f60208284031215610f08575f5ffd5b5051919050565b5f5f5f5f60808587031215610f22575f5ffd5b8451610f2d81610e37565b602086015160408701516060880151929650909450925060058110610f50575f5ffd5b939692955090935050565b634e487b7160e01b5f52602160045260245ffd5b8082028115828204841417610ed057610ed0610ea9565b5f82610fa057634e487b7160e01b5f52601260045260245ffd5b500490565b5f81518084528060208401602086015e5f602082860101526020601f19601f83011685010191505092915050565b604081525f610fe56040830185610fa5565b905082151560208301529392505050565b602081525f610ef16020830184610fa5565b604081525f61101a6040830185610fa5565b9050826020830152939250505056fea2646970667358221220d68612e13d7dd359cf82af9cc8fd755dae87b3d5eb39997cbfd55f10912c82c564736f6c634300081e0033610100604052348015610010575f5ffd5b5060405161344038038061344083398101604081905261002f916100e0565b6001600160a01b0380841660805282811660a052811660c0526100546002600a610120565b6100606002600a610120565b3060405161006d906100b8565b92835260208301919091526001600160a01b03166040820152606001604051809103905ff0801580156100a2573d5f5f3e3d5ffd5b506001600160a01b031660e0525061013f915050565b611c43806117fd83390190565b80516001600160a01b03811681146100db575f5ffd5b919050565b5f5f5f606084860312156100f2575f5ffd5b6100fb846100c5565b9250610109602085016100c5565b9150610117604085016100c5565b90509250925092565b5f8261013a57634e487b7160e01b5f52601260045260245ffd5b500490565b60805160a05160c05160e05161163e6101bf5f395f8181610301015281816107af01528181610c4501528181610d0001528181610eb301528181610f930152818161108101526111fe01525f6113c501525f81816106df01526108d601525f818161018d0152818161066d01528181610cd8015261143d015261163e5ff3fe60806040526004361061017b575f3560e01c806372d2655f116100cd578063d3fb73b411610087578063eaf98d2311610062578063eaf98d231461043d578063eced028014610451578063f2f3d09214610472578063fe45071414610486575f5ffd5b8063d3fb73b4146103d4578063db089f77146103f9578063dc05c75b14610418575f5ffd5b806372d2655f146101ca57806377f599661461035f5780637e95b5231461038457806395805dad146103a0578063af640d0f146103bf578063c1696541146103d4575f5ffd5b806337092559116101385780636047e01e116101135780636047e01e146101ca57806362eb33e3146102f05780636540742f146103235780636c4470fb1461033e575f5ffd5b806337092559146102b25780633fba1aeb146101ca57806340fbaeed146102d1575f5ffd5b806304e2064f1461017f57806305c3bd9e146101ca57806311610c25146101ec578063117a5b90146101f65780632e5b216814610279578063302bcc571461028d575b5f5ffd5b34801561018a575f5ffd5b507f00000000000000000000000000000000000000000000000000000000000000005b6040516001600160a01b0390911681526020015b60405180910390f35b3480156101d5575f5ffd5b506101de600a81565b6040519081526020016101c1565b6101f46104a5565b005b348015610201575f5ffd5b5061024a61021036600461149f565b5f60208190529081526040902080546001820154600583015460068401546007850154600890950154939492939192909160ff9091169086565b6040805196875260208701959095529385019290925260608401521515608083015260a082015260c0016101c1565b348015610284575f5ffd5b506101de6108bc565b348015610298575f5ffd5b506001545f908152602081905260409020600201546101de565b3480156102bd575f5ffd5b506101de6102cc36600461149f565b61090d565b3480156102dc575f5ffd5b506101f46102eb36600461149f565b610961565b3480156102fb575f5ffd5b506101ad7f000000000000000000000000000000000000000000000000000000000000000081565b34801561032e575f5ffd5b506101de670de0b6b3a764000081565b348015610349575f5ffd5b50610352610aab565b6040516101c191906114b6565b34801561036a575f5ffd5b506001545f908152602081905260409020600601546101de565b34801561038f575f5ffd5b506101de68056bc75e2d6310000081565b3480156103ab575f5ffd5b506101f46103ba36600461149f565b610c13565b3480156103ca575f5ffd5b506101de60015481565b3480156103df575f5ffd5b506001545f908152602081905260409020600501546101de565b348015610404575f5ffd5b506101f461041336600461149f565b610d5c565b348015610423575f5ffd5b506001545f908152602081905260409020600801546101de565b348015610448575f5ffd5b506101de600581565b34801561045c575f5ffd5b50610465610e70565b6040516101c19190611515565b34801561047d575f5ffd5b506101de61116a565b348015610491575f5ffd5b506101f46104a036600461149f565b61118e565b5f6104af816112eb565b6001545f90815260208190526040902080546005116105015760405162461bcd60e51b815260206004820152600960248201526811d85b5948199d5b1b60ba1b60448201526064015b60405180910390fd5b335f90815260038201602052604090205460ff16156105625760405162461bcd60e51b815260206004820152601960248201527f506c617965722068617320616c7265616479206a6f696e65640000000000000060448201526064016104f8565b670de0b6b3a76400003410158015610583575068056bc75e2d631000003411155b6105bd5760405162461bcd60e51b815260206004820152600b60248201526a084cae840e8de40d0d2ced60ab1b60448201526064016104f8565b600180545f90815260208190526040902001546105dc90600a9061154f565b4211156106205760405162461bcd60e51b81526020600482015260126024820152712132ba3a34b73390383430b9b29037bb32b960711b60448201526064016104f8565b60028101805460010181555f908152815490829061063d83611568565b909155505f90506064610651600534611580565b61065b9190611597565b90505f61066882346115b6565b90505f7f00000000000000000000000000000000000000000000000000000000000000006001600160a01b0316836040515f6040518083038185875af1925050503d805f81146106d3576040519150601f19603f3d011682016040523d82523d5f602084013e6106d8565b606091505b505090505f7f00000000000000000000000000000000000000000000000000000000000000006001600160a01b0316836040515f6040518083038185875af1925050503d805f8114610745576040519150601f19603f3d011682016040523d82523d5f602084013e61074a565b606091505b505090508180156107585750805b61079a5760405162461bcd60e51b8152602060048201526013602482015272119959481d1c985b9cd9995c8819985a5b1959606a1b60448201526064016104f8565b604051632210724360e11b81523360048201527f00000000000000000000000000000000000000000000000000000000000000006001600160a01b031690634420e486906024015f604051808303815f87803b1580156107f8575f5ffd5b505af115801561080a573d5f5f3e3d5ffd5b505050600286018054339250610822906001906115b6565b81548110610832576108326115c9565b5f918252602090912060039091020180546001600160a01b0319166001600160a01b0392909216919091179055600285018054849190610874906001906115b6565b81548110610884576108846115c9565b5f918252602080832060039283020160019081019490945533835297019096526040909520805460ff19169095179094555050505050565b5f6108c96005600a611580565b6108fe6001600160a01b037f000000000000000000000000000000000000000000000000000000000000000016316009611580565b6109089190611597565b905090565b5f81815b6001545f9081526020819052604090206006015481101561095a5760408051602081018490520160408051601f1981840301815291905280516020909101209150600101610911565b5092915050565b610969611356565b6003610974816112eb565b600a82106109ba5760405162461bcd60e51b815260206004820152601360248201527218dd5d081d1bc8189a59c81bdc881cdb585b1b606a1b60448201526064016104f8565b6001545f908152602081905260408120905b6002820154811015610aa557336001600160a01b03168260020182815481106109f7576109f76115c9565b5f9182526020909120600390910201546001600160a01b0316148015610a445750816002018181548110610a2d57610a2d6115c9565b5f91825260209091206002600390920201015460ff165b15610a9d575f826002018281548110610a5f57610a5f6115c9565b905f5260205f2090600302016002015f6101000a81548160ff02191690831515021790555083826006015f828254610a97919061154f565b90915550505b6001016109cc565b50505050565b6001545f908152602081905260408120606091805b6002830154811015610b1157826002018181548110610ae157610ae16115c9565b5f91825260209091206002600390920201015460ff16610b095781610b0581611568565b9250505b600101610ac0565b505f8167ffffffffffffffff811115610b2c57610b2c6115dd565b604051908082528060200260200182016040528015610b55578160200160208202803683370190505b5090505f805b6002850154811015610c0957846002018181548110610b7c57610b7c6115c9565b5f91825260209091206002600390920201015460ff16610c0157846002018181548110610bab57610bab6115c9565b5f91825260209091206003909102015483516001600160a01b0390911690849084908110610bdb57610bdb6115c9565b6001600160a01b039092166020928302919091019091015281610bfd81611568565b9250505b600101610b5b565b5090949350505050565b610c1b6113ba565b60018181555f82815260208190526040808220429084015582548252902001546001600160a01b037f0000000000000000000000000000000000000000000000000000000000000000169063310bd74b90610c7890600a9061154f565b6040518263ffffffff1660e01b8152600401610c9691815260200190565b5f604051808303815f87803b158015610cad575f5ffd5b505af1158015610cbf573d5f5f3e3d5ffd5b5050604051632210724360e11b81526001600160a01b037f0000000000000000000000000000000000000000000000000000000000000000811660048301527f0000000000000000000000000000000000000000000000000000000000000000169250634420e48691506024015f604051808303815f87803b158015610d43575f5ffd5b505af1158015610d55573d5f5f3e3d5ffd5b5050505050565b610d64611432565b6004610d6f816112eb565b6001545f908152602081905260409020600781015460ff1615610dc25760405162461bcd60e51b815260206004820152600b60248201526a185b1c9958591e4818dd5d60aa1b60448201526064016104f8565b825f5b6001545f90815260208190526040902060060154811015610e0e5760408051602081018490520160408051601f1981840301815291905280516020909101209150600101610dc5565b5081600501548114610e565760405162461bcd60e51b815260206004820152601160248201527024b73b30b634b21021baba10283937b7b360791b60448201526064016104f8565b50600581019290925550600701805460ff19166001179055565b600180545f90815260208190526040812090910154610e9190600a9061154f565b421015610e9d57505f90565b6001545f908152602081905260409020600201547f00000000000000000000000000000000000000000000000000000000000000006001600160a01b0316635e82ff656040518163ffffffff1660e01b8152600401602060405180830381865afa158015610f0d573d5f5f3e3d5ffd5b505050506040513d601f19601f82011682018060405250810190610f3191906115f1565b610f3b9190611580565b600180545f9081526020819052604090200154600a90610f5c90829061154f565b610f66919061154f565b610f70919061154f565b421015610f7d5750600190565b6001545f908152602081905260409020600201547f00000000000000000000000000000000000000000000000000000000000000006001600160a01b0316635e82ff656040518163ffffffff1660e01b8152600401602060405180830381865afa158015610fed573d5f5f3e3d5ffd5b505050506040513d601f19601f8201168201806040525081019061101191906115f1565b61101b9190611580565b600a80600a5f5f60015481526020019081526020015f2060010154611040919061154f565b61104a919061154f565b611054919061154f565b61105e919061154f565b42101561106b5750600290565b6001545f908152602081905260409020600201547f00000000000000000000000000000000000000000000000000000000000000006001600160a01b0316635e82ff656040518163ffffffff1660e01b8152600401602060405180830381865afa1580156110db573d5f5f3e3d5ffd5b505050506040513d601f19601f820116820180604052508101906110ff91906115f1565b6111099190611580565b600a80600a805f5f60015481526020019081526020015f206001015461112f919061154f565b611139919061154f565b611143919061154f565b61114d919061154f565b611157919061154f565b4210156111645750600390565b50600490565b600a80611177818061154f565b611181919061154f565b61118b919061154f565b81565b611196611432565b60026111a1816112eb565b5f8290036111e75760405162461bcd60e51b815260206004820152601360248201527205f616e63686f722063616e6e6f74206265203606c1b60448201526064016104f8565b5f5f5f60015481526020019081526020015f2090507f00000000000000000000000000000000000000000000000000000000000000006001600160a01b0316635a57b6d86040518163ffffffff1660e01b8152600401602060405180830381865afa158015611258573d5f5f3e3d5ffd5b505050506040513d601f19601f8201168201806040525081019061127c91906115f1565b60088201555f5b60028201548110156112cf5760018260020182815481106112a6576112a66115c9565b5f9182526020909120600390910201600201805460ff1916911515919091179055600101611283565b50506001545f9081526020819052604090206005019190915550565b8060048111156112fd576112fd611501565b611305610e70565b600481111561131657611316611501565b146113535760405162461bcd60e51b815260206004820152600d60248201526c03737ba1030ba10383430b9b29609d1b60448201526064016104f8565b50565b6001545f9081526020818152604080832033845260030190915290205460ff166113b85760405162461bcd60e51b81526020600482015260136024820152721bdb9b1e481c1b185e595c88185b1b1bddd959606a1b60448201526064016104f8565b565b336001600160a01b037f000000000000000000000000000000000000000000000000000000000000000016146113b85760405162461bcd60e51b815260206004820152601760248201527f6f6e6c7920636f6e74726f6c6c657220616c6c6f77656400000000000000000060448201526064016104f8565b336001600160a01b037f000000000000000000000000000000000000000000000000000000000000000016146113b85760405162461bcd60e51b81526020600482015260126024820152711bdb9b1e481a1bdd5cd948185b1b1bddd95960721b60448201526064016104f8565b5f602082840312156114af575f5ffd5b5035919050565b602080825282518282018190525f918401906040840190835b818110156114f65783516001600160a01b03168352602093840193909201916001016114cf565b509095945050505050565b634e487b7160e01b5f52602160045260245ffd5b602081016005831061153557634e487b7160e01b5f52602160045260245ffd5b91905290565b634e487b7160e01b5f52601160045260245ffd5b808201808211156115625761156261153b565b92915050565b5f600182016115795761157961153b565b5060010190565b80820281158282048414176115625761156261153b565b5f826115b157634e487b7160e01b5f52601260045260245ffd5b500490565b818103818111156115625761156261153b565b634e487b7160e01b5f52603260045260245ffd5b634e487b7160e01b5f52604160045260245ffd5b5f60208284031215611601575f5ffd5b505191905056fea26469706673582212205987996759cfb120faa0f2419208d26f1dc9087d740c0524a987ecd5245cc2aa64736f6c634300081e003360e060405234801561000f575f5ffd5b50604051611c43380380611c4383398101604081905261002e91610048565b6001600160a01b031660c05260809190915260a05261008a565b5f5f5f6060848603121561005a575f5ffd5b83516020850151604086015191945092506001600160a01b038116811461007f575f5ffd5b809150509250925092565b60805160a05160c051611b736100d05f395f818161028901528181610a3b0152610b3901525f81816103f50152610ae201525f81816104280152610ab30152611b735ff3fe60806040526004361061017b575f3560e01c8063806de9b8116100cd578063b971e2fd11610087578063ec70d2b011610062578063ec70d2b01461047a578063eced028014610499578063ed03e8ae146104ba578063f14fcbc8146104ce575f5ffd5b8063b971e2fd14610417578063d66239751461044a578063e1e158a51461045f575f5ffd5b8063806de9b814610372578063889fd98914610391578063991fe0fb146103a6578063aece475f146103bb578063af640d0f146103cf578063b39773a6146103e4575f5ffd5b8063310bd74b116101385780634e64a4ab116101135780634e64a4ab146103205780635a57b6d8146103355780635a7013aa1461034a5780635e82ff651461035e575f5ffd5b8063310bd74b146102ce5780634420e486146102ed5780634476f62c1461030c575f5ffd5b8063015db0001461017f57806314b87862146101bb5780631abf8b30146102355780631e4f2e77146102575780632b20e397146102785780632d21c158146102ab575b5f5ffd5b34801561018a575f5ffd5b5061019e6101993660046118f4565b6104e1565b6040516001600160a01b0390911681526020015b60405180910390f35b3480156101c6575f5ffd5b506101cf610509565b6040516101b291905f610100820190508251151582526020830151602083015260408301516040830152606083015160608301526080830151608083015260a0830151151560a083015260c0830151151560c083015260e083015160e083015292915050565b348015610240575f5ffd5b506102496105d5565b6040516101b292919061190b565b348015610262575f5ffd5b50610276610271366004611994565b610725565b005b348015610283575f5ffd5b5061019e7f000000000000000000000000000000000000000000000000000000000000000081565b3480156102b6575f5ffd5b506102c060065481565b6040519081526020016101b2565b3480156102d9575f5ffd5b506102766102e83660046118f4565b610a30565b3480156102f8575f5ffd5b50610276610307366004611a05565b610b2e565b348015610317575f5ffd5b50610276610bce565b34801561032b575f5ffd5b506102c060025481565b348015610340575f5ffd5b506102c060095481565b348015610355575f5ffd5b506102c05f5481565b348015610369575f5ffd5b506102c0600581565b34801561037d575f5ffd5b5061027661038c3660046118f4565b610d22565b34801561039c575f5ffd5b506102c060075481565b3480156103b1575f5ffd5b506102c060085481565b3480156103c6575f5ffd5b50610276610fbb565b3480156103da575f5ffd5b506102c060035481565b3480156103ef575f5ffd5b506102c07f000000000000000000000000000000000000000000000000000000000000000081565b348015610422575f5ffd5b506102c07f000000000000000000000000000000000000000000000000000000000000000081565b348015610455575f5ffd5b506102c060015481565b34801561046a575f5ffd5b506102c067016345785d8a000081565b348015610485575f5ffd5b506102766104943660046118f4565b6112bf565b3480156104a4575f5ffd5b506104ad6114d2565b6040516101b29190611a46565b3480156104c5575f5ffd5b5061019e611513565b6102766104dc3660046118f4565b611542565b600581815481106104f0575f80fd5b5f918252602090912001546001600160a01b0316905081565b61054f6040518061010001604052805f151581526020015f81526020015f81526020015f81526020015f81526020015f151581526020015f151581526020015f81525090565b50600380545f90815260046020818152604080842033855282529283902083516101008082018652825460ff908116151583526001840154948301949094526002830154958201959095529481015460608601529182015460808501526005820154808216151560a086015292909204909116151560c08301526006015460e082015290565b6003545f908152600460205260409020600281015460609182918067ffffffffffffffff81111561060857610608611a6c565b604051908082528060200260200182016040528015610631578160200160208202803683370190505b5093508067ffffffffffffffff81111561064d5761064d611a6c565b604051908082528060200260200182016040528015610676578160200160208202803683370190505b5092505f5b8181101561071e575f83600201828154811061069957610699611a80565b905f5260205f20015f9054906101000a90046001600160a01b03169050808683815181106106c9576106c9611a80565b6001600160a01b039283166020918202929092018101919091529082165f908152908590526040902060040154855186908490811061070a5761070a611a80565b60209081029190910101525060010161067b565b5050509091565b6002806107306114d2565b600481111561074157610741611a32565b146107675760405162461bcd60e51b815260040161075e90611a94565b60405180910390fd5b60085461077657610776610fbb565b5f5f19815b84811015610901575f86868381811061079657610796611a80565b90506020020160208101906107ab9190611a05565b6003545f9081526004602090815260408083206001600160a01b0385168452909152902060058101549192509060ff166108365760405162461bcd60e51b815260206004820152602660248201527f4164647265737320696e206c69737420646964206e6f742072657665616c205060448201526568617365203160d01b606482015260840161075e565b83816004015411156108955760405162461bcd60e51b815260206004820152602260248201527f4c697374206e6f7420736f72746564206279206456616c2064657363656e64696044820152616e6760f01b606482015260840161075e565b6004810154600580546001810182555f919091527f036b6384b5eca791c62761152d0c79bb0604c104a5fb6f4eb0703f3154bb3db00180546001600160a01b0319166001600160a01b0385161790559350846108f081611adf565b9550506001909201915061077b9050565b505f805b6003545f9081526004602052604090206002015481101561098e576003545f9081526004602052604081206002810180549192918490811061094957610949611a80565b5f9182526020808320909101546001600160a01b0316835282019290925260400190206005015460ff1615610986578161098281611adf565b9250505b600101610905565b5060055481146109f15760405162461bcd60e51b815260206004820152602860248201527f4d697373696e672076616c6964207061727469636970616e747320696e206f7260448201526719195c881b1a5cdd60c21b606482015260840161075e565b426007556040518381527f95317bca8c04ccd06920b7b32f4f806489be04de8166d8f54b48136d74ac25da9060200160405180910390a1505050505050565b336001600160a01b037f00000000000000000000000000000000000000000000000000000000000000001614610a995760405162461bcd60e51b815260206004820152600e60248201526d37b7363c903932b3b4b9ba3930b960911b604482015260640161075e565b60038054905f610aa883611adf565b90915550610ad890507f000000000000000000000000000000000000000000000000000000000000000082611af7565b5f819055610b07907f000000000000000000000000000000000000000000000000000000000000000090611af7565b6001555f6006819055600781905560088190556009819055610b2b906005906118c6565b50565b336001600160a01b037f00000000000000000000000000000000000000000000000000000000000000001614610b975760405162461bcd60e51b815260206004820152600e60248201526d37b7363c903932b3b4b9ba3930b960911b604482015260640161075e565b6003545f9081526004602090815260408083206001600160a01b03909416835260019384019091529020805460ff19169091179055565b600380610bd96114d2565b6004811115610bea57610bea611a32565b14610c075760405162461bcd60e51b815260040161075e90611a94565b60055460065410610c4c5760405162461bcd60e51b815260206004820152600f60248201526e04e6f7468696e6720746f20736b697608c1b604482015260640161075e565b6005600754610c5b9190611af7565b4211610c9e5760405162461bcd60e51b8152602060048201526012602482015271151d5c9b881b9bdd081d1a5b5959081bdd5d60721b604482015260640161075e565b5f600560065481548110610cb457610cb4611a80565b5f9182526020822001546040516001600160a01b03909116925082917f86552a969cdb79ad70c67b7beb4e38dbbcda629916d69baf24ba7021a33c1c3091a260068054905f610d0283611adf565b90915550504260075560055460065403610d1e57610d1e6117dd565b5050565b600180610d2d6114d2565b6004811115610d3e57610d3e611a32565b14610d5b5760405162461bcd60e51b815260040161075e90611a94565b6003545f90815260046020908152604080832033845280835281842060019091019092529091205460ff16610dbe5760405162461bcd60e51b81526020600482015260096024820152681b9bdd08185919195960ba1b604482015260640161075e565b6003545f90815260046020908152604080832033845290915290205460ff16610e1a5760405162461bcd60e51b815260206004820152600e60248201526d1b9bdd081c9959da5cdd195c995960921b604482015260640161075e565b600581015460ff1615610e6f5760405162461bcd60e51b815260206004820152601860248201527f416c72656164792072657665616c656420706861736520310000000000000000604482015260640161075e565b5f839003610eae5760405162461bcd60e51b815260206004820152600c60248201526b0636f2063616e7420626520360a41b604482015260640161075e565b60018101545f03610ef05760405162461bcd60e51b815260206004820152600c60248201526b063762063616e7420626520360a41b604482015260640161075e565b60018101546040805160208101869052016040516020818303038152906040528051906020012014610f645760405162461bcd60e51b815260206004820152601960248201527f496e76616c696420636f6d6d69746d656e742072657665616c00000000000000604482015260640161075e565b6002810183905560058101805460ff1916600117905560405133907f26767c656be00bcd124af3ca80ecc3de0a6578579ed309fa97d4949f4dca3a1990610fae9086815260200190565b60405180910390a2505050565b60605f5b6003545f90815260046020526040902060020154811015611067576003545f9081526004602052604081206002810180548391908590811061100357611003611a80565b5f9182526020808320909101546001600160a01b031683528201929092526040019020600581015490915060ff161561105e57600281015460405161104c918591602001611b10565b60405160208183030381529060405292505b50600101610fbf565b505f8151116110b85760405162461bcd60e51b815260206004820152601b60248201527f4e6f2076616c69642072657665616c7320696e20506861736520310000000000604482015260640161075e565b8051602082012060088190556040517f1a8d78f41d349a20d4d3dcb351668267bb604856701fc842850df53514a3cc4b916110f69190815260200190565b60405180910390a16008545f8190036111515760405162461bcd60e51b815260206004820152601760248201527f6f6d656761496e742063616e6e6f74206265206e756c6c000000000000000000604482015260640161075e565b5f5b6003545f908152600460205260409020600201548110156112ba576003545f9081526004602052604081206002810180548391908590811061119757611197611a80565b5f9182526020808320909101546001600160a01b031683528201929092526040019020600581015490915060ff16156112b15760018101545f8190036112155760405162461bcd60e51b81526020600482015260136024820152721c0b98dd8818d85b9b9bdd081899481b9d5b1b606a1b604482015260640161075e565b5f81851161122c576112278583611b2a565b611236565b6112368286611b2a565b90508060405160200161124b91815260200190565b60408051601f198184030181529190528051602090910120600484018190555f036112ae5760405162461bcd60e51b81526020600482015260136024820152721c0b98dd8818d85b9b9bdd081899481b9d5b1b606a1b604482015260640161075e565b50505b50600101611153565b505050565b6003806112ca6114d2565b60048111156112db576112db611a32565b146112f85760405162461bcd60e51b815260040161075e90611a94565b600554600654106113435760405162461bcd60e51b8152602060048201526015602482015274105b1b081c995d99585b1cc81c1c9bd8d95cdcd959605a1b604482015260640161075e565b60056007546113529190611af7565b421061136057611360610bce565b5f60056006548154811061137657611376611a80565b5f918252602090912001546001600160a01b031690503381146113cb5760405162461bcd60e51b815260206004820152600d60248201526c2737ba103cb7bab9103a3ab93760991b604482015260640161075e565b6003545f90815260046020908152604080832033845282529182902060028101548351928301879052909290910160405160208183030381529060405280519060200120146114545760405162461bcd60e51b8152602060048201526015602482015274125b9d985b1a59081cd958dc995d081c995d99585b605a1b604482015260640161075e565b6003810184905560058101805461ff00191661010017905560068054905f61147b83611adf565b90915550504260075560405184815233907f4598d19699695a119c458e9614911f749d7dbaf95a03ad1779793482d32755b39060200160405180910390a2600554600654036114cc576114cc6117dd565b50505050565b5f5f544210156114e157505f90565b6001544210156114f15750600190565b6005545f036115005750600290565b60095461150d5750600390565b50600490565b5f60056006548154811061152957611529611a80565b5f918252602090912001546001600160a01b0316919050565b5f8061154c6114d2565b600481111561155d5761155d611a32565b1461157a5760405162461bcd60e51b815260040161075e90611a94565b67016345785d8a00003410156115c95760405162461bcd60e51b8152602060048201526014602482015273125b9cdd59999a58da595b9d0819195c1bdcda5d60621b604482015260640161075e565b6003545f90815260046020908152604080832033845290915290205460ff161561162a5760405162461bcd60e51b8152602060048201526012602482015271105b1c9958591e481c9959da5cdd195c995960721b604482015260640161075e565b6003545f90815260046020908152604080832033845260010190915290205460ff166116845760405162461bcd60e51b81526020600482015260096024820152681b9bdd08185919195960ba1b604482015260640161075e565b5f8290036116c35760405162461bcd60e51b815260206004820152600c60248201526b063762063616e7420626520360a41b604482015260640161075e565b604080516101008082018352600180835260208084018781525f858701818152606087018281526080880183815260a0890184815260c08a018581523460e08c019081526003805488526004808b528e892033808b52908c528f8a209e518f5460ff1916901515178f5599518e8d015596516002808f019190915595518d82015593518c870155915160058c018054925161ffff1990931691151561ff00191691909117911515909a0217909855965160069098019790975594548152938252858420909401805492830181558352918290200180546001600160a01b03191683179055915184815290917f5a535d3e2551e12d386f4ddc23831403dcc44673683c17620c115a9f75908322910160405180910390a25050565b60605f5b60055481101561187c576003545f908152600460205260408120600580548391908590811061181257611812611a80565b5f9182526020808320909101546001600160a01b031683528201929092526040019020600581015490915060ff6101009091041615611873576003810154604051611861918591602001611b10565b60405160208183030381529060405292505b506001016117e1565b508051602082012060098190556040517f35c250167b84b14a1b98b45f2aa4886bb1968338305f1d1ff95de4a3f3723e31916118bb9190815260200190565b60405180910390a150565b5080545f8255905f5260205f2090810190610b2b91905b808211156118f0575f81556001016118dd565b5090565b5f60208284031215611904575f5ffd5b5035919050565b604080825283519082018190525f9060208501906060840190835b8181101561194d5783516001600160a01b0316835260209384019390920191600101611926565b5050838103602080860191909152855180835291810192508501905f5b8181101561198857825184526020938401939092019160010161196a565b50919695505050505050565b5f5f602083850312156119a5575f5ffd5b823567ffffffffffffffff8111156119bb575f5ffd5b8301601f810185136119cb575f5ffd5b803567ffffffffffffffff8111156119e1575f5ffd5b8560208260051b84010111156119f5575f5ffd5b6020919091019590945092505050565b5f60208284031215611a15575f5ffd5b81356001600160a01b0381168114611a2b575f5ffd5b9392505050565b634e487b7160e01b5f52602160045260245ffd5b6020810160058310611a6657634e487b7160e01b5f52602160045260245ffd5b91905290565b634e487b7160e01b5f52604160045260245ffd5b634e487b7160e01b5f52603260045260245ffd5b6020808252601d908201527f496e76616c696420506861736520666f72207468697320616374696f6e000000604082015260600190565b634e487b7160e01b5f52601160045260245ffd5b5f60018201611af057611af0611acb565b5060010190565b80820180821115611b0a57611b0a611acb565b92915050565b5f83518060208601845e9190910191825250602001919050565b81810381811115611b0a57611b0a611acb56fea26469706673582212200f14b05f6494220cadec29a565965835089184ae6aca660d93cb69979c235d4064736f6c634300081e003360e0604052602860c052348015610014575f5ffd5b506040516120a73803806120a78339810160408190526100339161007a565b6001600160a01b039182166080521660a0819052600280546001600160a01b03191690911790556100ab565b80516001600160a01b0381168114610075575f5ffd5b919050565b5f5f6040838503121561008b575f5ffd5b6100948361005f565b91506100a26020840161005f565b90509250929050565b60805160a05160c051611faf6100f85f395f81816102dc01528181610bf0015261152201525f8181610452015261156501525f8181610232015281816104d2015261174a0152611faf5ff3fe608060405234801561000f575f5ffd5b5060043610610187575f3560e01c8063975cedd4116100d9578063d42feff311610093578063eced02801161006e578063eced028014610429578063ee0fc1211461044d578063feb3081314610474578063ff8fb35c146103a7575f5ffd5b8063d42feff3146103ea578063d7c81b551461040d578063e067eb7114610416575f5ffd5b8063975cedd41461034b5780639f84f3ca14610370578063a60174c914610385578063ab1205e9146103a7578063c1696541146103c9578063c2897b10146103e2575f5ffd5b80633fadd5621161014457806360b663bb1161011f57806360b663bb146102c55780636641ea08146102d75780636e63edaa146102fe5780637d2af9dc14610326575f5ffd5b80633fadd5621461021a578063475971621461022d57806347e1d5501461026c575f5ffd5b8063089c34371461018b5780630e024807146101a0578063117a5b90146101cc5780632ae3594a146101f257806332f5ce09146101fa5780633782585a14610212575b5f5ffd5b61019e610199366004611af3565b61047c565b005b6101b36101ae366004611b68565b610697565b6040516101c39493929190611be1565b60405180910390f35b6101df6101da366004611b68565b6108e5565b6040516101c39796959493929190611d2a565b61019e6109b1565b610202610b19565b60405190151581526020016101c3565b610202610ba7565b61019e610228366004611b68565b610c1e565b6102547f000000000000000000000000000000000000000000000000000000000000000081565b6040516001600160a01b0390911681526020016101c3565b6102b361027a366004611b68565b5f90815260208190526040902080546001820154600283015460038401546004850154600990950154939592949193909260ff90921691565b6040516101c396959493929190611d75565b6001545b6040519081526020016101c3565b6102c97f000000000000000000000000000000000000000000000000000000000000000081565b61031161030c366004611daf565b610e6c565b604080519283529015156020830152016101c3565b6001545f90815260208181526040808320338452600a0190915290205460ff16610202565b6102c9610359366004611b68565b5f9081526020819052604090206008015460ff1690565b610378610fc7565b6040516101c39190611dcf565b6102c9610393366004611b68565b5f9081526020819052604090206007015490565b6102c96103b5366004611b68565b5f9081526020819052604090206006015490565b6001545f908152602081905260409020600901546102c9565b61019e611089565b6103fd6103f8366004611daf565b611206565b6040516101c39493929190611de8565b6102c960015481565b61019e610424366004611b68565b611271565b6001545f9081526020819052604090206004015460ff166040516101c39190611e1c565b6102547f000000000000000000000000000000000000000000000000000000000000000081565b61037861141a565b6104846114da565b61048c61155a565b60018054905f61049b83611e3e565b90915550506001545f90815260208190526040812042815560048101805460ff1916905560098101839055905b83811015610655577f00000000000000000000000000000000000000000000000000000000000000006001600160a01b031685858381811061050c5761050c611e56565b90506020020160208101906105219190611e6a565b6001600160a01b03161461064d57600682018054600190810182555f91825290600584019087878581811061055857610558611e56565b905060200201602081019061056d9190611e6a565b6001600160a01b0316815260208101919091526040015f20805460ff19169115159190911790558484828181106105a6576105a6611e56565b90506020020160208101906105bb9190611e6a565b8260060182815481106105d0576105d0611e56565b905f5260205f2090600502015f015f6101000a8154816001600160a01b0302191690836001600160a01b03160217905550600182600601828154811061061857610618611e56565b905f5260205f2090600502016004015f6101000a81548160ff0219169083600481111561064757610647611bb9565b02179055505b6001016104c8565b507fbd19c47e9925eb6f7be8bb1c13a841e0240aaeaf17f217e90022e9c8eb66877f60015460405161068991815260200190565b60405180910390a150505050565b5f81815260208190526040902060068101546060918291829182918067ffffffffffffffff8111156106cb576106cb611e90565b6040519080825280602002602001820160405280156106f4578160200160208202803683370190505b5095508067ffffffffffffffff81111561071057610710611e90565b604051908082528060200260200182016040528015610739578160200160208202803683370190505b5094508067ffffffffffffffff81111561075557610755611e90565b60405190808252806020026020018201604052801561077e578160200160208202803683370190505b5093508067ffffffffffffffff81111561079a5761079a611e90565b6040519080825280602002602001820160405280156107c3578160200160208202803683370190505b5092505f5b818110156108db575f8360060182815481106107e6576107e6611e56565b5f9182526020909120600590910201805489519192506001600160a01b03169089908490811061081857610818611e56565b60200260200101906001600160a01b031690816001600160a01b031681525050806001015487838151811061084f5761084f611e56565b60209081029190910101526003810154865160ff9091169087908490811061087957610879611e56565b60209081029190910101526004810154855160ff909116908690849081106108a3576108a3611e56565b602002602001019060048111156108bc576108bc611bb9565b908160048111156108cf576108cf611bb9565b905250506001016107c8565b5050509193509193565b5f6020818152918152604080822080546001820154600283015460038401546004850154865160078701805460809b810283018c0190995260608201898152969a95999498939760ff9093169692959194909385939285929085015b82821015610981575f848152602090819020604080518082019091529084015460ff80821683526101009091041681830152825260019092019101610941565b505050908252506001919091015460ff808216602084015261010090910416151560409091015260099091015487565b60016109bc816115d2565b6109c4611618565b5f6109ce33611676565b6001545f90815260208181526040808320338452600a0190915290205490915060ff1615610a385760405162461bcd60e51b81526020600482015260126024820152711a185cc8185b1c9958591e481c1b185e595960721b60448201526064015b60405180910390fd5b600160048083015460ff1690811115610a5357610a53611bb9565b14610aa05760405162461bcd60e51b815260206004820152601b60248201527f706c61796572206d757374206265207374696c6c2061637469766500000000006044820152606401610a2f565b7ff55b60e97e21a512fded2fa241db66aaa21e5f03b59bf0ea07c22e39fb3379b7604051610ae5906020808252600390820152621a1a5d60ea1b604082015260600190565b60405180910390a15050600180545f90815260208181526040808320338452600a019091529020805460ff19169091179055565b6001545f90815260208190526040812060068101548203610b3b575f91505090565b60015f5b6006830154811015610ba0575f836006018281548110610b6157610b61611e56565b905f5260205f2090600502019050828015610b955750600160048083015460ff1690811115610b9257610b92611bb9565b14155b925050600101610b3f565b5092915050565b5f600180545f9081526020819052604090206004015460ff166003811115610bd157610bd1611bb9565b148015610c1957506001545f90815260208190526040902054610c15907f000000000000000000000000000000000000000000000000000000000000000090611ea4565b4210155b905090565b610c266114da565b610c2e61173f565b6002610c39816115d2565b6001545f90815260208181526040918290206009810154835192830186905290929091016040516020818303038152906040528051906020012014610cc05760405162461bcd60e51b815260206004820152601a60248201527f6e657720616e63686f72206973206e6f7420696e20636861696e0000000000006044820152606401610a2f565b60098101839055610ccf610b19565b15610d29575b6008810154601160ff9091161015610cfc576009810154610cf79082906117ac565b610cd5565b5050600180545f90815260208190526040808220600401805460ff19166003179055915481522042905550565b5f5b6006820154811015610e0d575f826006018281548110610d4d57610d4d611e56565b5f91825260209091206005909102019050600160048083015460ff1690811115610d7957610d79611bb9565b03610dbe576009830154610d8f90849083611843565b6001545f9081526020818152604080832084546001600160a01b03168452600a019091529020805460ff191690555b600381015460ff16601503610de2576004818101805460ff19169091179055610e04565b6003810154601560ff9091161115610e045760048101805460ff191660031790555b50600101610d2b565b50610e16610b19565b15610e43575b6008810154601160ff9091161015610cfc576009810154610e3e9082906117ac565b610e1c565b60048101805460ff19166001908117909155545f9081526020819052604090204290555b505050565b5f828152602081905260408120600681018054839291839186908110610e9457610e94611e56565b5f918252602082206008850154600590920201925060ff16906015808311919083148015610ec6575060078501546002145b9050600360048086015460ff1690811115610ee357610ee3611bb9565b03610ef8575f5f965096505050505050610fc0565b60048481015460ff1681811115610f1157610f11611bb9565b03610f6b578015610f2f575050506001015492505f9150610fc09050565b600284600101546003610f429190611eb7565b610f4c9190611ee2565b8460010154610f5b9190611ea4565b6001965096505050505050610fc0565b8180610f7d5750600384015460ff1683105b15610f92576001840154610f5b906002611eb7565b600384015460ff16839003610fb4575050506001015492505f9150610fc09050565b5f5f9650965050505050505b9250929050565b604080516060808201835281525f60208201819052918101919091526001545f90815260208181526040808320815160079091018054608094810283018501909352606082018381529194909385938592909185015b8282101561105d575f848152602090819020604080518082019091529084015460ff8082168352610100909104168183015282526001909201910161101d565b505050908252506001919091015460ff8082166020840152610100909104161515604090910152919050565b6001611094816115d2565b61109c611618565b5f6110a633611676565b6001545f90815260208181526040808320338452600a0190915290205490915060ff161561110b5760405162461bcd60e51b81526020600482015260126024820152711a185cc8185b1c9958591e481c1b185e595960721b6044820152606401610a2f565b600160048083015460ff169081111561112657611126611bb9565b146111735760405162461bcd60e51b815260206004820152601b60248201527f706c61796572206d757374206265207374696c6c2061637469766500000000006044820152606401610a2f565b6004810180546002919060ff19166001830217905550600180545f90815260208181526040808320338452600a0190915290819020805460ff1916909217909155517ff55b60e97e21a512fded2fa241db66aaa21e5f03b59bf0ea07c22e39fb3379b7906111fa906020808252600590820152641cdd185b9960da1b604082015260600190565b60405180910390a15050565b5f5f5f5f5f5f5f8881526020019081526020015f20600601868154811061122f5761122f611e56565b5f91825260209091206005909102018054600182015460038301546004909301546001600160a01b039092169a90995060ff9283169850911695509350505050565b6112796114da565b61128161173f565b5f61128b816115d2565b6001545f908152602081815260409182902060098101548351928301869052909290910160405160208183030381529060405280519060200120146113125760405162461bcd60e51b815260206004820152601a60248201527f6e657720616e63686f72206973206e6f7420696e20636861696e0000000000006044820152606401610a2f565b600981018390555f5b60068201548110156113fc575f82600601828154811061133d5761133d611e56565b905f5260205f2090600502019050611364836009015482856118439092919063ffffffff16565b600983015461137590849083611843565b82600601828154811061138a5761138a611e56565b5f91825260209091206003600590920201015460ff166015036113f35760048360060183815481106113be576113be611e56565b905f5260205f2090600502016004015f6101000a81548160ff021916908360048111156113ed576113ed611bb9565b02179055505b5060010161131b565b50600981015461140d9082906117ac565b506114166118d8565b5050565b604080516060808201835281525f602082018190529181018290529061143f33611676565b60408051600283018054608060208202840181019094526060830181815294955091939092849284915f9085015b828210156114ad575f848152602090819020604080518082019091529084015460ff8082168352610100909104168183015282526001909201910161146d565b505050908252506001919091015460ff808216602084015261010090910416151560409091015292915050565b600180545f9081526020819052604090206004015460ff16600381111561150357611503611bb9565b14801561154b57506001545f90815260208190526040902054611547907f000000000000000000000000000000000000000000000000000000000000000090611ea4565b4210155b15611558576115586118d8565b565b336001600160a01b037f000000000000000000000000000000000000000000000000000000000000000016146115585760405162461bcd60e51b815260206004820152601760248201527f6f6e6c7920636f6e74726f6c6c657220616c6c6f7765640000000000000000006044820152606401610a2f565b8060038111156115e4576115e4611bb9565b6001545f9081526020819052604090206004015460ff16600381111561160c5761160c611bb9565b14611615575f5ffd5b50565b6001545f9081526020818152604080832033845260050190915290205460ff166115585760405162461bcd60e51b815260206004820152600f60248201526e34b9903737ba103090383630bcb2b960891b6044820152606401610a2f565b6001545f908152602081905260408120815b600682015481101561170357836001600160a01b03168260060182815481106116b3576116b3611e56565b5f9182526020909120600590910201546001600160a01b0316036116fb578160060181815481106116e6576116e6611e56565b905f5260205f20906005020192505050919050565b600101611688565b5060405162461bcd60e51b815260206004820152601060248201526f141b185e595c881b9bdd08199bdd5b9960821b6044820152606401610a2f565b336001600160a01b037f000000000000000000000000000000000000000000000000000000000000000016146115585760405162461bcd60e51b81526020600482015260126024820152711bdb9b1e481a1bdd5cd948185b1b1bddd95960721b6044820152606401610a2f565b5f6117b78383611967565b6007840180546001810182555f8281526020908190208451920180549185015160ff9081166101000261ffff199093169316929092171790559091506117fd9082611a11565b7fc748b9df9473e8783e41ec4719597c4f7e68bd4fae6ffe3de66eda6df7ecfe6282825f86600201546040516118369493929190611ef5565b60405180910390a1505050565b5f61184e8484611967565b6002830180546001810182555f8281526020908190208451920180549185015160ff9081166101000261ffff199093169316929092171790559091506118949082611a11565b815460028501546040517fc748b9df9473e8783e41ec4719597c4f7e68bd4fae6ffe3de66eda6df7ecfe629261068992879286926001600160a01b03169190611ef5565b6001545f9081526020819052604090206004015460ff16600381111561190057611900611bb9565b61190b906001611ea4565b600381111561191c5761191c611bb9565b600180545f9081526020819052604090206004018054909160ff199091169083600381111561194d5761194d611bb9565b02179055506001545f908152602081905260409020429055565b604080518082019091525f80825260208201525f82846003015f815461198c90611e3e565b918290555060408051602081019390935282015260600160408051601f19818403018152919052805160209091012090505f6119c9600d83611f34565b6119d4906001611ea4565b90505f60046119e4600d85611ee2565b6119ee9190611f34565b6040805180820190915260ff938416815292166020830152509150505b92915050565b80515f9060ff16600103611a38575060018201805461ff001916610100179055600b611a53565b600a825f015160ff161115611a4f5750600a611a53565b5080515b6001830180548291905f90611a6c90849060ff16611f47565b82546101009290920a60ff8181021990931691831602179091556001850154601591161190508015611aa757506001830154610100900460ff165b15610e6757600183018054600a91905f90611ac690849060ff16611f60565b825460ff9182166101009390930a9283029190920219909116179055505050600101805461ff0019169055565b5f5f5f60408486031215611b05575f5ffd5b833567ffffffffffffffff811115611b1b575f5ffd5b8401601f81018613611b2b575f5ffd5b803567ffffffffffffffff811115611b41575f5ffd5b8660208260051b8401011115611b55575f5ffd5b6020918201979096509401359392505050565b5f60208284031215611b78575f5ffd5b5035919050565b5f8151808452602084019350602083015f5b82811015611baf578151865260209586019590910190600101611b91565b5093949350505050565b634e487b7160e01b5f52602160045260245ffd5b60058110611bdd57611bdd611bb9565b9052565b608080825285519082018190525f90602087019060a0840190835b81811015611c235783516001600160a01b0316835260209384019390920191600101611bfc565b50508381036020850152611c378188611b7f565b9150508281036040840152611c4c8186611b7f565b8381036060850152845180825260208087019350909101905f90815b81811015611c8e57611c7b848651611bcd565b6020948501949390930192600101611c68565b50919998505050505050505050565b60048110611bdd57611bdd611bb9565b8051606080845281519084018190525f9160200190829060808601905b80831015611d0457611ced828551805160ff908116835260209182015116910152565b604082019150602084019350600183019250611cca565b5060ff602086015116602087015260408501511515604087015280935050505092915050565b878152866020820152856040820152846060820152611d4c6080820185611c9d565b60e060a08201525f611d6160e0830185611cad565b90508260c083015298975050505050505050565b5f60c082019050878252866020830152856040830152846060830152611d9e6080830185611c9d565b8260a0830152979650505050505050565b5f5f60408385031215611dc0575f5ffd5b50508035926020909101359150565b602081525f611de16020830184611cad565b9392505050565b6001600160a01b0385168152602081018490526040810183905260808101611e136060830184611bcd565b95945050505050565b60208101611a0b8284611c9d565b634e487b7160e01b5f52601160045260245ffd5b5f60018201611e4f57611e4f611e2a565b5060010190565b634e487b7160e01b5f52603260045260245ffd5b5f60208284031215611e7a575f5ffd5b81356001600160a01b0381168114611de1575f5ffd5b634e487b7160e01b5f52604160045260245ffd5b80820180821115611a0b57611a0b611e2a565b8082028115828204841417611a0b57611a0b611e2a565b634e487b7160e01b5f52601260045260245ffd5b5f82611ef057611ef0611ece565b500490565b84815260a08101611f196020830186805160ff908116835260209182015116910152565b6001600160a01b039390931660608201526080015292915050565b5f82611f4257611f42611ece565b500690565b60ff8181168382160190811115611a0b57611a0b611e2a565b60ff8281168282160390811115611a0b57611a0b611e2a56fea26469706673582212208709d254917c8f0affdfee69bc289f026891595a02912ebf730693109c58c52e64736f6c634300081e0033","linkReferences":{}},"methodIdentifiers":{"game()":"c3fe3e28","getPhase()":"eced0280","reset()":"d826f88f","roundId()":"8cd221c9","setup()":"ba0bba40","startGame()":"d65ab5f2","verify()":"fc735e99","verifyGame()":"b1055add"},"id":18}