{"abi":[{"type":"receive","stateMutability":"payable"},{"type":"function","name":"getPhase","inputs":[{"name":"_id","type":"uint256","internalType":"uint256"}],"outputs":[{"name":"","type":"uint256","internalType":"uint256"}],"stateMutability":"view"},{"type":"function","name":"resolveGame","inputs":[{"name":"_id","type":"uint256","internalType":"uint256"}],"outputs":[],"stateMutability":"nonpayable"},{"type":"function","name":"verifyAnchor","inputs":[{"name":"_id","type":"uint256","internalType":"uint256"},{"name":"salt","type":"bytes32","internalType":"bytes32"},{"name":"length","type":"uint256","internalType":"uint256"}],"outputs":[],"stateMutability":"nonpayable"},{"type":"function","name":"verifyGame","inputs":[{"name":"_id","type":"uint256","internalType":"uint256"},{"name":"_game","type":"address","internalType":"address"},{"name":"initialRandom","type":"bytes32","internalType":"bytes32"}],"outputs":[],"stateMutability":"nonpayable"},{"type":"event","name":"DebugBytes","inputs":[{"name":"message","type":"string","indexed":false,"internalType":"string"},{"name":"val","type":"bytes32","indexed":false,"internalType":"bytes32"}],"anonymous":false},{"type":"event","name":"DebugLog","inputs":[{"name":"message","type":"string","indexed":false,"internalType":"string"},{"name":"val","type":"uint256","indexed":false,"internalType":"uint256"}],"anonymous":false}],"bytecode":{"object":"0x6080604052348015600e575f5ffd5b5061105f8061001c5f395ff3fe608060405260043610610041575f3560e01c806316ef376b1461004c5780633c41def71461007d578063b7a5a5b61461009e578063e671464d146100bd575f5ffd5b3661004857005b5f5ffd5b348015610057575f5ffd5b5061006b610066366004610e20565b6100dc565b60405190815260200160405180910390f35b348015610088575f5ffd5b5061009c610097366004610e4b565b61010f565b005b3480156100a9575f5ffd5b5061009c6100b8366004610e20565b610266565b3480156100c8575f5ffd5b5061009c6100d7366004610e80565b61057a565b5f8181526020819052604081206004015442906100fb90601e90610ebd565b1061010757505f919050565b506001919050565b60028390555f838152600160208181526040808420805460ff19169093179092558281529181902042600480830191909155600582018054610100600160a81b0319166101006001600160a01b038981168202929092179283905585516323acb8b160e11b815295519496920416936347597162938184019390918290030181865afa1580156101a1573d5f5f3e3d5ffd5b505050506040513d601f19601f820116820180604052508101906101c59190610ed6565b81546001600160a01b0319166001600160a01b0391821617825560058201546040805163c169654160e01b815290516101009092049092169163c16965419160048083019260209291908290030181865afa158015610226573d5f5f3e3d5ffd5b505050506040513d601f19601f8201168201806040525081019061024a9190610ef8565b60018201556002810191909155600501805460ff191690555050565b5f8181526001602052604090205460ff166102c15760405162461bcd60e51b81526020600482015260166024820152751cd95cdcda5bdb88191bd95cc81b9bdd08195e1a5cdd60521b60448201526064015b60405180910390fd5b5f8181526020819052604090206004015442906102e090601e90610ebd565b11156103275760405162461bcd60e51b81526020600482015260166024820152751d995c9a599e481a185cc81b9bdd081cdd185c9d195960521b60448201526064016102b8565b5f8181526020819052604090206005015460ff16156103885760405162461bcd60e51b815260206004820152601d60248201527f67616d652063616e20616c7265616479206265207061796564206f757400000060448201526064016102b8565b5f8181526020819052604090206003015460ff16156103af576103aa81610946565b61055d565b5f818152602081905260408082206005015490516001621c132960e21b03198152600481018490526101009091046001600160a01b03169190829063ff8fb35c90602401602060405180830381865afa15801561040e573d5f5f3e3d5ffd5b505050506040513d601f19601f820116820180604052508101906104329190610ef8565b90505f5b818110156105595760405163d42feff360e01b815260048101859052602481018290525f9081906001600160a01b0386169063d42feff390604401608060405180830381865afa15801561048c573d5f5f3e3d5ffd5b505050506040513d601f19601f820116820180604052508101906104b09190610f0f565b5050915091505f826001600160a01b0316826040515f6040518083038185875af1925050503d805f81146104ff576040519150601f19603f3d011682016040523d82523d5f602084013e610504565b606091505b505090508061054e5760405162461bcd60e51b81526020600482015260166024820152751499599d5b99081d1c985b9cd9995c8819985a5b195960521b60448201526064016102b8565b505050600101610436565b5050505b5f908152602081905260409020600501805460ff19166001179055565b604080518082018252601081526f3b32b934b33cb4b7339030b731b437b960811b6020808301919091525f868152600190915291909120546105bf919060ff16610ca1565b5f8381526001602052604090205460ff166106155760405162461bcd60e51b81526020600482015260166024820152751cd95cdcda5bdb88191bd95cc81b9bdd08195e1a5cdd60521b60448201526064016102b8565b6106676040518060400160405280600e81526020016d736573736f696e2065786973747360901b81525042601e5f5f8881526020019081526020015f20600401546106609190610ebd565b1015610ca1565b5f83815260208190526040902060040154429061068690601e90610ebd565b10156106cc5760405162461bcd60e51b81526020600482015260156024820152743b32b934b33c903832b934b7b21034b99037bb32b960591b60448201526064016102b8565b60408051808201825260168152753b32b934b33c903832b934b7b2103737ba1037bb32b960511b6020808301919091525f86815290819052919091205461071e91906001600160a01b03163314610ca1565b5f838152602081905260409020546001600160a01b031633146107785760405162461bcd60e51b81526020600482015260126024820152711bdb9b1e481a1bdd5cd948185b1b1bddd95960721b60448201526064016102b8565b6107a36040518060400160405280600a8152602001696e746f20686f7075736560b01b815250610cea565b5f838152602081905260409020600201546107be9083610d30565b5f8381526020818152604080832060020154815192830152810184905260600160408051601f198184030181528282528051602091820120838301909252600a8352690ccd2e4e6e840d0c2e6d60b31b90830152915061081e9082610d77565b610846604051806040016040528060068152602001650d8cadccee8d60d31b81525083610d77565b5f5b828110156108875760408051602081018490520160405160208183030381529060405280519060200120915061087f825f1c610dbc565b600101610848565b505f8481526020819052604090206001015481146108f95760405162461bcd60e51b815260206004820152602960248201527f66696e616c20616e63686f7220646f6573206e6f74206d617463682063616c756044820152686c61746564206f6e6560b81b60648201526084016102b8565b6109266040518060400160405280600c81526020016b68617368206d61746368657360a01b815250610cea565b5050505f908152602081905260409020600301805460ff19166001179055565b5f818152602081905260408082206005015490516325d73b7560e21b8152600481018490526101009091046001600160a01b03169190829063975cedd490602401602060405180830381865afa1580156109a2573d5f5f3e3d5ffd5b505050506040513d601f19601f820116820180604052508101906109c69190610ef8565b90506015808211905f9083148015610a44575060405163a60174c960e01b8152600481018690526001600160a01b0385169063a60174c990602401602060405180830381865afa158015610a1c573d5f5f3e3d5ffd5b505050506040513d601f19601f82011682018060405250810190610a409190610ef8565b6002145b90505f846001600160a01b031663ff8fb35c6002546040518263ffffffff1660e01b8152600401610a7791815260200190565b602060405180830381865afa158015610a92573d5f5f3e3d5ffd5b505050506040513d601f19601f82011682018060405250810190610ab69190610ef8565b90505f5b81811015610c985760405163d42feff360e01b815260048101889052602481018290525f908190819081906001600160a01b038b169063d42feff390604401608060405180830381865afa158015610b14573d5f5f3e3d5ffd5b505050506040513d601f19601f82011682018060405250810190610b389190610f0f565b929650909450925090505f806003836004811115610b5857610b58610f5b565b03610b6457505f610be6565b6004836004811115610b7857610b78610f5b565b03610bb7578815610b8b57849150610be6565b6002610b98866003610f6f565b610ba29190610f86565b610bac9086610ebd565b915060019050610be6565b8915610bc857610bac856002610f6f565b8a841115610bdb57610bac856002610f6f565b8a8403610be6578491505b8115610c86575f866001600160a01b0316836040515f6040518083038185875af1925050503d805f8114610c35576040519150601f19603f3d011682016040523d82523d5f602084013e610c3a565b606091505b5050905080610c845760405162461bcd60e51b815260206004820152601660248201527514185e5bdd5d081d1c985b9cd9995c8819985a5b195960521b60448201526064016102b8565b505b505060019094019350610aba92505050565b50505050505050565b610ce68282604051602401610cb7929190610fd3565b60408051601f198184030181529190526020810180516001600160e01b031663c3b5563560e01b179052610dfd565b5050565b610d2d81604051602401610cfe9190610ff6565b60408051601f198184030181529190526020810180516001600160e01b031663104c13eb60e21b179052610dfd565b50565b6040516024810183905260448101829052610ce69060640160408051601f198184030181529190526020810180516001600160e01b0316637b3338ad60e11b179052610dfd565b610ce68282604051602401610d8d929190611008565b60408051601f198184030181529190526020810180516001600160e01b0316632d839cb360e21b179052610dfd565b610d2d81604051602401610dd291815260200190565b60408051601f198184030181529190526020810180516001600160e01b031663f82c50f160e01b1790525b610d2d815f6a636f6e736f6c652e6c6f6790505f5f835160208501845afa505050565b5f60208284031215610e30575f5ffd5b5035919050565b6001600160a01b0381168114610d2d575f5ffd5b5f5f5f60608486031215610e5d575f5ffd5b833592506020840135610e6f81610e37565b929592945050506040919091013590565b5f5f5f60608486031215610e92575f5ffd5b505081359360208301359350604090920135919050565b634e487b7160e01b5f52601160045260245ffd5b80820180821115610ed057610ed0610ea9565b92915050565b5f60208284031215610ee6575f5ffd5b8151610ef181610e37565b9392505050565b5f60208284031215610f08575f5ffd5b5051919050565b5f5f5f5f60808587031215610f22575f5ffd5b8451610f2d81610e37565b602086015160408701516060880151929650909450925060058110610f50575f5ffd5b939692955090935050565b634e487b7160e01b5f52602160045260245ffd5b8082028115828204841417610ed057610ed0610ea9565b5f82610fa057634e487b7160e01b5f52601260045260245ffd5b500490565b5f81518084528060208401602086015e5f602082860101526020601f19601f83011685010191505092915050565b604081525f610fe56040830185610fa5565b905082151560208301529392505050565b602081525f610ef16020830184610fa5565b604081525f61101a6040830185610fa5565b9050826020830152939250505056fea2646970667358221220d68612e13d7dd359cf82af9cc8fd755dae87b3d5eb39997cbfd55f10912c82c564736f6c634300081e0033","linkReferences":{}},"methodIdentifiers":{"getPhase(uint256)":"16ef376b","resolveGame(uint256)":"b7a5a5b6","verifyAnchor(uint256,bytes32,uint256)":"e671464d","verifyGame(uint256,address,bytes32)":"3c41def7"},"id":22}