{"abi":[{"type":"constructor","inputs":[{"name":"house","type":"address","internalType":"address"},{"name":"controller","type":"address","internalType":"address"}],"stateMutability":"nonpayable"},{"type":"function","name":"CONTROLLER","inputs":[],"outputs":[{"name":"","type":"address","internalType":"address payable"}],"stateMutability":"view"},{"type":"function","name":"HOUSE","inputs":[],"outputs":[{"name":"","type":"address","internalType":"address payable"}],"stateMutability":"view"},{"type":"function","name":"ROUND_DURATION","inputs":[],"outputs":[{"name":"","type":"uint256","internalType":"uint256"}],"stateMutability":"view"},{"type":"function","name":"allFinished","inputs":[],"outputs":[{"name":"","type":"bool","internalType":"bool"}],"stateMutability":"view"},{"type":"function","name":"createGame","inputs":[{"name":"players","type":"address[]","internalType":"address[]"},{"name":"anchor","type":"bytes32","internalType":"bytes32"}],"outputs":[],"stateMutability":"nonpayable"},{"type":"function","name":"currentGame","inputs":[],"outputs":[{"name":"","type":"uint256","internalType":"uint256"}],"stateMutability":"view"},{"type":"function","name":"deal","inputs":[{"name":"_newAnchor","type":"bytes32","internalType":"bytes32"}],"outputs":[],"stateMutability":"nonpayable"},{"type":"function","name":"dealActions","inputs":[{"name":"_newAnchor","type":"bytes32","internalType":"bytes32"}],"outputs":[],"stateMutability":"nonpayable"},{"type":"function","name":"gameId","inputs":[],"outputs":[{"name":"","type":"uint256","internalType":"uint256"}],"stateMutability":"view"},{"type":"function","name":"games","inputs":[{"name":"","type":"uint256","internalType":"uint256"}],"outputs":[{"name":"phaseStartTime","type":"uint256","internalType":"uint256"},{"name":"playerCount","type":"uint256","internalType":"uint256"},{"name":"roundId","type":"uint256","internalType":"uint256"},{"name":"cardCount","type":"uint256","internalType":"uint256"},{"name":"phase","type":"uint8","internalType":"enum Blackjack.Phase"},{"name":"dealerHand","type":"tuple","internalType":"struct Blackjack.Hand","components":[{"name":"cards","type":"tuple[]","internalType":"struct Blackjack.Card[]","components":[{"name":"value","type":"uint8","internalType":"uint8"},{"name":"suit","type":"uint8","internalType":"uint8"}]},{"name":"total","type":"uint8","internalType":"uint8"},{"name":"hasUsableAce","type":"bool","internalType":"bool"}]},{"name":"anchor","type":"bytes32","internalType":"bytes32"}],"stateMutability":"view"},{"type":"function","name":"getAllPlayerResolveViews","inputs":[{"name":"id","type":"uint256","internalType":"uint256"}],"outputs":[{"name":"addrs","type":"address[]","internalType":"address[]"},{"name":"bets","type":"uint256[]","internalType":"uint256[]"},{"name":"totals","type":"uint256[]","internalType":"uint256[]"},{"name":"statuses","type":"uint8[]","internalType":"enum Blackjack.PlayerStatus[]"}],"stateMutability":"view"},{"type":"function","name":"getAnchor","inputs":[],"outputs":[{"name":"","type":"bytes32","internalType":"bytes32"}],"stateMutability":"view"},{"type":"function","name":"getDealerCardCount","inputs":[{"name":"id","type":"uint256","internalType":"uint256"}],"outputs":[{"name":"","type":"uint256","internalType":"uint256"}],"stateMutability":"view"},{"type":"function","name":"getDealerTotal","inputs":[{"name":"id","type":"uint256","internalType":"uint256"}],"outputs":[{"name":"","type":"uint256","internalType":"uint256"}],"stateMutability":"view"},{"type":"function","name":"getDealreHand","inputs":[],"outputs":[{"name":"hand","type":"tuple","internalType":"struct Blackjack.Hand","components":[{"name":"cards","type":"tuple[]","internalType":"struct Blackjack.Card[]","components":[{"name":"value","type":"uint8","internalType":"uint8"},{"name":"suit","type":"uint8","internalType":"uint8"}]},{"name":"total","type":"uint8","internalType":"uint8"},{"name":"hasUsableAce","type":"bool","internalType":"bool"}]}],"stateMutability":"view"},{"type":"function","name":"getGameInfo","inputs":[{"name":"id","type":"uint256","internalType":"uint256"}],"outputs":[{"name":"phaseStartTime","type":"uint256","internalType":"uint256"},{"name":"playerCount","type":"uint256","internalType":"uint256"},{"name":"roundId","type":"uint256","internalType":"uint256"},{"name":"cardCount","type":"uint256","internalType":"uint256"},{"name":"phase","type":"uint8","internalType":"enum Blackjack.Phase"},{"name":"anchor","type":"bytes32","internalType":"bytes32"}],"stateMutability":"view"},{"type":"function","name":"getGamePlayerCount","inputs":[{"name":"id","type":"uint256","internalType":"uint256"}],"outputs":[{"name":"","type":"uint256","internalType":"uint256"}],"stateMutability":"view"},{"type":"function","name":"getPhase","inputs":[],"outputs":[{"name":"","type":"uint8","internalType":"enum Blackjack.Phase"}],"stateMutability":"view"},{"type":"function","name":"getPlayerCards","inputs":[],"outputs":[{"name":"hand","type":"tuple","internalType":"struct Blackjack.Hand","components":[{"name":"cards","type":"tuple[]","internalType":"struct Blackjack.Card[]","components":[{"name":"value","type":"uint8","internalType":"uint8"},{"name":"suit","type":"uint8","internalType":"uint8"}]},{"name":"total","type":"uint8","internalType":"uint8"},{"name":"hasUsableAce","type":"bool","internalType":"bool"}]}],"stateMutability":"view"},{"type":"function","name":"getPlayerCount","inputs":[{"name":"id","type":"uint256","internalType":"uint256"}],"outputs":[{"name":"","type":"uint256","internalType":"uint256"}],"stateMutability":"view"},{"type":"function","name":"getPlayerResolveView","inputs":[{"name":"id","type":"uint256","internalType":"uint256"},{"name":"index","type":"uint256","internalType":"uint256"}],"outputs":[{"name":"addr","type":"address","internalType":"address"},{"name":"bet","type":"uint256","internalType":"uint256"},{"name":"handTotal","type":"uint256","internalType":"uint256"},{"name":"status","type":"uint8","internalType":"enum Blackjack.PlayerStatus"}],"stateMutability":"view"},{"type":"function","name":"hasPlayed","inputs":[],"outputs":[{"name":"","type":"bool","internalType":"bool"}],"stateMutability":"view"},{"type":"function","name":"hit","inputs":[],"outputs":[],"stateMutability":"nonpayable"},{"type":"function","name":"playerRoundOver","inputs":[],"outputs":[{"name":"","type":"bool","internalType":"bool"}],"stateMutability":"view"},{"type":"function","name":"previewPayout","inputs":[{"name":"id","type":"uint256","internalType":"uint256"},{"name":"index","type":"uint256","internalType":"uint256"}],"outputs":[{"name":"payout","type":"uint256","internalType":"uint256"},{"name":"won","type":"bool","internalType":"bool"}],"stateMutability":"view"},{"type":"function","name":"stand","inputs":[],"outputs":[],"stateMutability":"nonpayable"},{"type":"event","name":"CardPlayed","inputs":[{"name":"seed","type":"bytes32","indexed":false,"internalType":"bytes32"},{"name":"card","type":"tuple","indexed":false,"internalType":"struct Blackjack.Card","components":[{"name":"value","type":"uint8","internalType":"uint8"},{"name":"suit","type":"uint8","internalType":"uint8"}]},{"name":"player","type":"address","indexed":false,"internalType":"address"},{"name":"gameId","type":"uint256","indexed":false,"internalType":"uint256"}],"anonymous":false},{"type":"event","name":"GameCreated","inputs":[{"name":"gameId","type":"uint256","indexed":false,"internalType":"uint256"}],"anonymous":false},{"type":"event","name":"PlayerAction","inputs":[{"name":"action","type":"string","indexed":false,"internalType":"string"}],"anonymous":false}],"bytecode":{"object":"0x60e0604052602860c052348015610014575f5ffd5b506040516120a73803806120a78339810160408190526100339161007a565b6001600160a01b039182166080521660a0819052600280546001600160a01b03191690911790556100ab565b80516001600160a01b0381168114610075575f5ffd5b919050565b5f5f6040838503121561008b575f5ffd5b6100948361005f565b91506100a26020840161005f565b90509250929050565b60805160a05160c051611faf6100f85f395f81816102dc01528181610bf0015261152201525f8181610452015261156501525f8181610232015281816104d2015261174a0152611faf5ff3fe608060405234801561000f575f5ffd5b5060043610610187575f3560e01c8063975cedd4116100d9578063d42feff311610093578063eced02801161006e578063eced028014610429578063ee0fc1211461044d578063feb3081314610474578063ff8fb35c146103a7575f5ffd5b8063d42feff3146103ea578063d7c81b551461040d578063e067eb7114610416575f5ffd5b8063975cedd41461034b5780639f84f3ca14610370578063a60174c914610385578063ab1205e9146103a7578063c1696541146103c9578063c2897b10146103e2575f5ffd5b80633fadd5621161014457806360b663bb1161011f57806360b663bb146102c55780636641ea08146102d75780636e63edaa146102fe5780637d2af9dc14610326575f5ffd5b80633fadd5621461021a578063475971621461022d57806347e1d5501461026c575f5ffd5b8063089c34371461018b5780630e024807146101a0578063117a5b90146101cc5780632ae3594a146101f257806332f5ce09146101fa5780633782585a14610212575b5f5ffd5b61019e610199366004611af3565b61047c565b005b6101b36101ae366004611b68565b610697565b6040516101c39493929190611be1565b60405180910390f35b6101df6101da366004611b68565b6108e5565b6040516101c39796959493929190611d2a565b61019e6109b1565b610202610b19565b60405190151581526020016101c3565b610202610ba7565b61019e610228366004611b68565b610c1e565b6102547f000000000000000000000000000000000000000000000000000000000000000081565b6040516001600160a01b0390911681526020016101c3565b6102b361027a366004611b68565b5f90815260208190526040902080546001820154600283015460038401546004850154600990950154939592949193909260ff90921691565b6040516101c396959493929190611d75565b6001545b6040519081526020016101c3565b6102c97f000000000000000000000000000000000000000000000000000000000000000081565b61031161030c366004611daf565b610e6c565b604080519283529015156020830152016101c3565b6001545f90815260208181526040808320338452600a0190915290205460ff16610202565b6102c9610359366004611b68565b5f9081526020819052604090206008015460ff1690565b610378610fc7565b6040516101c39190611dcf565b6102c9610393366004611b68565b5f9081526020819052604090206007015490565b6102c96103b5366004611b68565b5f9081526020819052604090206006015490565b6001545f908152602081905260409020600901546102c9565b61019e611089565b6103fd6103f8366004611daf565b611206565b6040516101c39493929190611de8565b6102c960015481565b61019e610424366004611b68565b611271565b6001545f9081526020819052604090206004015460ff166040516101c39190611e1c565b6102547f000000000000000000000000000000000000000000000000000000000000000081565b61037861141a565b6104846114da565b61048c61155a565b60018054905f61049b83611e3e565b90915550506001545f90815260208190526040812042815560048101805460ff1916905560098101839055905b83811015610655577f00000000000000000000000000000000000000000000000000000000000000006001600160a01b031685858381811061050c5761050c611e56565b90506020020160208101906105219190611e6a565b6001600160a01b03161461064d57600682018054600190810182555f91825290600584019087878581811061055857610558611e56565b905060200201602081019061056d9190611e6a565b6001600160a01b0316815260208101919091526040015f20805460ff19169115159190911790558484828181106105a6576105a6611e56565b90506020020160208101906105bb9190611e6a565b8260060182815481106105d0576105d0611e56565b905f5260205f2090600502015f015f6101000a8154816001600160a01b0302191690836001600160a01b03160217905550600182600601828154811061061857610618611e56565b905f5260205f2090600502016004015f6101000a81548160ff0219169083600481111561064757610647611bb9565b02179055505b6001016104c8565b507fbd19c47e9925eb6f7be8bb1c13a841e0240aaeaf17f217e90022e9c8eb66877f60015460405161068991815260200190565b60405180910390a150505050565b5f81815260208190526040902060068101546060918291829182918067ffffffffffffffff8111156106cb576106cb611e90565b6040519080825280602002602001820160405280156106f4578160200160208202803683370190505b5095508067ffffffffffffffff81111561071057610710611e90565b604051908082528060200260200182016040528015610739578160200160208202803683370190505b5094508067ffffffffffffffff81111561075557610755611e90565b60405190808252806020026020018201604052801561077e578160200160208202803683370190505b5093508067ffffffffffffffff81111561079a5761079a611e90565b6040519080825280602002602001820160405280156107c3578160200160208202803683370190505b5092505f5b818110156108db575f8360060182815481106107e6576107e6611e56565b5f9182526020909120600590910201805489519192506001600160a01b03169089908490811061081857610818611e56565b60200260200101906001600160a01b031690816001600160a01b031681525050806001015487838151811061084f5761084f611e56565b60209081029190910101526003810154865160ff9091169087908490811061087957610879611e56565b60209081029190910101526004810154855160ff909116908690849081106108a3576108a3611e56565b602002602001019060048111156108bc576108bc611bb9565b908160048111156108cf576108cf611bb9565b905250506001016107c8565b5050509193509193565b5f6020818152918152604080822080546001820154600283015460038401546004850154865160078701805460809b810283018c0190995260608201898152969a95999498939760ff9093169692959194909385939285929085015b82821015610981575f848152602090819020604080518082019091529084015460ff80821683526101009091041681830152825260019092019101610941565b505050908252506001919091015460ff808216602084015261010090910416151560409091015260099091015487565b60016109bc816115d2565b6109c4611618565b5f6109ce33611676565b6001545f90815260208181526040808320338452600a0190915290205490915060ff1615610a385760405162461bcd60e51b81526020600482015260126024820152711a185cc8185b1c9958591e481c1b185e595960721b60448201526064015b60405180910390fd5b600160048083015460ff1690811115610a5357610a53611bb9565b14610aa05760405162461bcd60e51b815260206004820152601b60248201527f706c61796572206d757374206265207374696c6c2061637469766500000000006044820152606401610a2f565b7ff55b60e97e21a512fded2fa241db66aaa21e5f03b59bf0ea07c22e39fb3379b7604051610ae5906020808252600390820152621a1a5d60ea1b604082015260600190565b60405180910390a15050600180545f90815260208181526040808320338452600a019091529020805460ff19169091179055565b6001545f90815260208190526040812060068101548203610b3b575f91505090565b60015f5b6006830154811015610ba0575f836006018281548110610b6157610b61611e56565b905f5260205f2090600502019050828015610b955750600160048083015460ff1690811115610b9257610b92611bb9565b14155b925050600101610b3f565b5092915050565b5f600180545f9081526020819052604090206004015460ff166003811115610bd157610bd1611bb9565b148015610c1957506001545f90815260208190526040902054610c15907f000000000000000000000000000000000000000000000000000000000000000090611ea4565b4210155b905090565b610c266114da565b610c2e61173f565b6002610c39816115d2565b6001545f90815260208181526040918290206009810154835192830186905290929091016040516020818303038152906040528051906020012014610cc05760405162461bcd60e51b815260206004820152601a60248201527f6e657720616e63686f72206973206e6f7420696e20636861696e0000000000006044820152606401610a2f565b60098101839055610ccf610b19565b15610d29575b6008810154601160ff9091161015610cfc576009810154610cf79082906117ac565b610cd5565b5050600180545f90815260208190526040808220600401805460ff19166003179055915481522042905550565b5f5b6006820154811015610e0d575f826006018281548110610d4d57610d4d611e56565b5f91825260209091206005909102019050600160048083015460ff1690811115610d7957610d79611bb9565b03610dbe576009830154610d8f90849083611843565b6001545f9081526020818152604080832084546001600160a01b03168452600a019091529020805460ff191690555b600381015460ff16601503610de2576004818101805460ff19169091179055610e04565b6003810154601560ff9091161115610e045760048101805460ff191660031790555b50600101610d2b565b50610e16610b19565b15610e43575b6008810154601160ff9091161015610cfc576009810154610e3e9082906117ac565b610e1c565b60048101805460ff19166001908117909155545f9081526020819052604090204290555b505050565b5f828152602081905260408120600681018054839291839186908110610e9457610e94611e56565b5f918252602082206008850154600590920201925060ff16906015808311919083148015610ec6575060078501546002145b9050600360048086015460ff1690811115610ee357610ee3611bb9565b03610ef8575f5f965096505050505050610fc0565b60048481015460ff1681811115610f1157610f11611bb9565b03610f6b578015610f2f575050506001015492505f9150610fc09050565b600284600101546003610f429190611eb7565b610f4c9190611ee2565b8460010154610f5b9190611ea4565b6001965096505050505050610fc0565b8180610f7d5750600384015460ff1683105b15610f92576001840154610f5b906002611eb7565b600384015460ff16839003610fb4575050506001015492505f9150610fc09050565b5f5f9650965050505050505b9250929050565b604080516060808201835281525f60208201819052918101919091526001545f90815260208181526040808320815160079091018054608094810283018501909352606082018381529194909385938592909185015b8282101561105d575f848152602090819020604080518082019091529084015460ff8082168352610100909104168183015282526001909201910161101d565b505050908252506001919091015460ff8082166020840152610100909104161515604090910152919050565b6001611094816115d2565b61109c611618565b5f6110a633611676565b6001545f90815260208181526040808320338452600a0190915290205490915060ff161561110b5760405162461bcd60e51b81526020600482015260126024820152711a185cc8185b1c9958591e481c1b185e595960721b6044820152606401610a2f565b600160048083015460ff169081111561112657611126611bb9565b146111735760405162461bcd60e51b815260206004820152601b60248201527f706c61796572206d757374206265207374696c6c2061637469766500000000006044820152606401610a2f565b6004810180546002919060ff19166001830217905550600180545f90815260208181526040808320338452600a0190915290819020805460ff1916909217909155517ff55b60e97e21a512fded2fa241db66aaa21e5f03b59bf0ea07c22e39fb3379b7906111fa906020808252600590820152641cdd185b9960da1b604082015260600190565b60405180910390a15050565b5f5f5f5f5f5f5f8881526020019081526020015f20600601868154811061122f5761122f611e56565b5f91825260209091206005909102018054600182015460038301546004909301546001600160a01b039092169a90995060ff9283169850911695509350505050565b6112796114da565b61128161173f565b5f61128b816115d2565b6001545f908152602081815260409182902060098101548351928301869052909290910160405160208183030381529060405280519060200120146113125760405162461bcd60e51b815260206004820152601a60248201527f6e657720616e63686f72206973206e6f7420696e20636861696e0000000000006044820152606401610a2f565b600981018390555f5b60068201548110156113fc575f82600601828154811061133d5761133d611e56565b905f5260205f2090600502019050611364836009015482856118439092919063ffffffff16565b600983015461137590849083611843565b82600601828154811061138a5761138a611e56565b5f91825260209091206003600590920201015460ff166015036113f35760048360060183815481106113be576113be611e56565b905f5260205f2090600502016004015f6101000a81548160ff021916908360048111156113ed576113ed611bb9565b02179055505b5060010161131b565b50600981015461140d9082906117ac565b506114166118d8565b5050565b604080516060808201835281525f602082018190529181018290529061143f33611676565b60408051600283018054608060208202840181019094526060830181815294955091939092849284915f9085015b828210156114ad575f848152602090819020604080518082019091529084015460ff8082168352610100909104168183015282526001909201910161146d565b505050908252506001919091015460ff808216602084015261010090910416151560409091015292915050565b600180545f9081526020819052604090206004015460ff16600381111561150357611503611bb9565b14801561154b57506001545f90815260208190526040902054611547907f000000000000000000000000000000000000000000000000000000000000000090611ea4565b4210155b15611558576115586118d8565b565b336001600160a01b037f000000000000000000000000000000000000000000000000000000000000000016146115585760405162461bcd60e51b815260206004820152601760248201527f6f6e6c7920636f6e74726f6c6c657220616c6c6f7765640000000000000000006044820152606401610a2f565b8060038111156115e4576115e4611bb9565b6001545f9081526020819052604090206004015460ff16600381111561160c5761160c611bb9565b14611615575f5ffd5b50565b6001545f9081526020818152604080832033845260050190915290205460ff166115585760405162461bcd60e51b815260206004820152600f60248201526e34b9903737ba103090383630bcb2b960891b6044820152606401610a2f565b6001545f908152602081905260408120815b600682015481101561170357836001600160a01b03168260060182815481106116b3576116b3611e56565b5f9182526020909120600590910201546001600160a01b0316036116fb578160060181815481106116e6576116e6611e56565b905f5260205f20906005020192505050919050565b600101611688565b5060405162461bcd60e51b815260206004820152601060248201526f141b185e595c881b9bdd08199bdd5b9960821b6044820152606401610a2f565b336001600160a01b037f000000000000000000000000000000000000000000000000000000000000000016146115585760405162461bcd60e51b81526020600482015260126024820152711bdb9b1e481a1bdd5cd948185b1b1bddd95960721b6044820152606401610a2f565b5f6117b78383611967565b6007840180546001810182555f8281526020908190208451920180549185015160ff9081166101000261ffff199093169316929092171790559091506117fd9082611a11565b7fc748b9df9473e8783e41ec4719597c4f7e68bd4fae6ffe3de66eda6df7ecfe6282825f86600201546040516118369493929190611ef5565b60405180910390a1505050565b5f61184e8484611967565b6002830180546001810182555f8281526020908190208451920180549185015160ff9081166101000261ffff199093169316929092171790559091506118949082611a11565b815460028501546040517fc748b9df9473e8783e41ec4719597c4f7e68bd4fae6ffe3de66eda6df7ecfe629261068992879286926001600160a01b03169190611ef5565b6001545f9081526020819052604090206004015460ff16600381111561190057611900611bb9565b61190b906001611ea4565b600381111561191c5761191c611bb9565b600180545f9081526020819052604090206004018054909160ff199091169083600381111561194d5761194d611bb9565b02179055506001545f908152602081905260409020429055565b604080518082019091525f80825260208201525f82846003015f815461198c90611e3e565b918290555060408051602081019390935282015260600160408051601f19818403018152919052805160209091012090505f6119c9600d83611f34565b6119d4906001611ea4565b90505f60046119e4600d85611ee2565b6119ee9190611f34565b6040805180820190915260ff938416815292166020830152509150505b92915050565b80515f9060ff16600103611a38575060018201805461ff001916610100179055600b611a53565b600a825f015160ff161115611a4f5750600a611a53565b5080515b6001830180548291905f90611a6c90849060ff16611f47565b82546101009290920a60ff8181021990931691831602179091556001850154601591161190508015611aa757506001830154610100900460ff165b15610e6757600183018054600a91905f90611ac690849060ff16611f60565b825460ff9182166101009390930a9283029190920219909116179055505050600101805461ff0019169055565b5f5f5f60408486031215611b05575f5ffd5b833567ffffffffffffffff811115611b1b575f5ffd5b8401601f81018613611b2b575f5ffd5b803567ffffffffffffffff811115611b41575f5ffd5b8660208260051b8401011115611b55575f5ffd5b6020918201979096509401359392505050565b5f60208284031215611b78575f5ffd5b5035919050565b5f8151808452602084019350602083015f5b82811015611baf578151865260209586019590910190600101611b91565b5093949350505050565b634e487b7160e01b5f52602160045260245ffd5b60058110611bdd57611bdd611bb9565b9052565b608080825285519082018190525f90602087019060a0840190835b81811015611c235783516001600160a01b0316835260209384019390920191600101611bfc565b50508381036020850152611c378188611b7f565b9150508281036040840152611c4c8186611b7f565b8381036060850152845180825260208087019350909101905f90815b81811015611c8e57611c7b848651611bcd565b6020948501949390930192600101611c68565b50919998505050505050505050565b60048110611bdd57611bdd611bb9565b8051606080845281519084018190525f9160200190829060808601905b80831015611d0457611ced828551805160ff908116835260209182015116910152565b604082019150602084019350600183019250611cca565b5060ff602086015116602087015260408501511515604087015280935050505092915050565b878152866020820152856040820152846060820152611d4c6080820185611c9d565b60e060a08201525f611d6160e0830185611cad565b90508260c083015298975050505050505050565b5f60c082019050878252866020830152856040830152846060830152611d9e6080830185611c9d565b8260a0830152979650505050505050565b5f5f60408385031215611dc0575f5ffd5b50508035926020909101359150565b602081525f611de16020830184611cad565b9392505050565b6001600160a01b0385168152602081018490526040810183905260808101611e136060830184611bcd565b95945050505050565b60208101611a0b8284611c9d565b634e487b7160e01b5f52601160045260245ffd5b5f60018201611e4f57611e4f611e2a565b5060010190565b634e487b7160e01b5f52603260045260245ffd5b5f60208284031215611e7a575f5ffd5b81356001600160a01b0381168114611de1575f5ffd5b634e487b7160e01b5f52604160045260245ffd5b80820180821115611a0b57611a0b611e2a565b8082028115828204841417611a0b57611a0b611e2a565b634e487b7160e01b5f52601260045260245ffd5b5f82611ef057611ef0611ece565b500490565b84815260a08101611f196020830186805160ff908116835260209182015116910152565b6001600160a01b039390931660608201526080015292915050565b5f82611f4257611f42611ece565b500690565b60ff8181168382160190811115611a0b57611a0b611e2a565b60ff8281168282160390811115611a0b57611a0b611e2a56fea26469706673582212208709d254917c8f0affdfee69bc289f026891595a02912ebf730693109c58c52e64736f6c634300081e0033","linkReferences":{}},"methodIdentifiers":{"CONTROLLER()":"ee0fc121","HOUSE()":"47597162","ROUND_DURATION()":"6641ea08","allFinished()":"32f5ce09","createGame(address[],bytes32)":"089c3437","currentGame()":"60b663bb","deal(bytes32)":"e067eb71","dealActions(bytes32)":"3fadd562","gameId()":"d7c81b55","games(uint256)":"117a5b90","getAllPlayerResolveViews(uint256)":"0e024807","getAnchor()":"c1696541","getDealerCardCount(uint256)":"a60174c9","getDealerTotal(uint256)":"975cedd4","getDealreHand()":"9f84f3ca","getGameInfo(uint256)":"47e1d550","getGamePlayerCount(uint256)":"ff8fb35c","getPhase()":"eced0280","getPlayerCards()":"feb30813","getPlayerCount(uint256)":"ab1205e9","getPlayerResolveView(uint256,uint256)":"d42feff3","hasPlayed()":"7d2af9dc","hit()":"2ae3594a","playerRoundOver()":"3782585a","previewPayout(uint256,uint256)":"6e63edaa","stand()":"c2897b10"},"id":20}