{"abi":[{"type":"constructor","inputs":[{"name":"_commitDuration","type":"uint256","internalType":"uint256"},{"name":"_reveal1Duration","type":"uint256","internalType":"uint256"},{"name":"controller","type":"address","internalType":"address"}],"stateMutability":"nonpayable"},{"type":"function","name":"COMMIT_DURATION","inputs":[],"outputs":[{"name":"","type":"uint256","internalType":"uint256"}],"stateMutability":"view"},{"type":"function","name":"MIN_DEPOSIT","inputs":[],"outputs":[{"name":"","type":"uint256","internalType":"uint256"}],"stateMutability":"view"},{"type":"function","name":"REVEAL_DURATION","inputs":[],"outputs":[{"name":"","type":"uint256","internalType":"uint256"}],"stateMutability":"view"},{"type":"function","name":"TURN_TIMEOUT","inputs":[],"outputs":[{"name":"","type":"uint256","internalType":"uint256"}],"stateMutability":"view"},{"type":"function","name":"calculateIntermediateValues","inputs":[],"outputs":[],"stateMutability":"nonpayable"},{"type":"function","name":"commit","inputs":[{"name":"_cv","type":"bytes32","internalType":"bytes32"}],"outputs":[],"stateMutability":"payable"},{"type":"function","name":"commitEndTime","inputs":[],"outputs":[{"name":"","type":"uint256","internalType":"uint256"}],"stateMutability":"view"},{"type":"function","name":"currentRevealIndex","inputs":[],"outputs":[{"name":"","type":"uint256","internalType":"uint256"}],"stateMutability":"view"},{"type":"function","name":"getCurrentRevealer","inputs":[],"outputs":[{"name":"current","type":"address","internalType":"address"}],"stateMutability":"view"},{"type":"function","name":"getParticipant","inputs":[],"outputs":[{"name":"","type":"tuple","internalType":"struct CommitReveal2.Participant","components":[{"name":"registered","type":"bool","internalType":"bool"},{"name":"cv","type":"bytes32","internalType":"bytes32"},{"name":"co","type":"bytes32","internalType":"bytes32"},{"name":"s","type":"bytes32","internalType":"bytes32"},{"name":"dVal","type":"uint256","internalType":"uint256"},{"name":"revealed1","type":"bool","internalType":"bool"},{"name":"revealed2","type":"bool","internalType":"bool"},{"name":"deposit","type":"uint256","internalType":"uint256"}]}],"stateMutability":"view"},{"type":"function","name":"getParticipantsAndDVals","inputs":[],"outputs":[{"name":"addrs","type":"address[]","internalType":"address[]"},{"name":"dVals","type":"uint256[]","internalType":"uint256[]"}],"stateMutability":"view"},{"type":"function","name":"getPhase","inputs":[],"outputs":[{"name":"","type":"uint8","internalType":"enum CommitReveal2.Phase"}],"stateMutability":"view"},{"type":"function","name":"id","inputs":[],"outputs":[{"name":"","type":"uint256","internalType":"uint256"}],"stateMutability":"view"},{"type":"function","name":"lastTurnActionTime","inputs":[],"outputs":[{"name":"","type":"uint256","internalType":"uint256"}],"stateMutability":"view"},{"type":"function","name":"omega_o","inputs":[],"outputs":[{"name":"","type":"bytes32","internalType":"bytes32"}],"stateMutability":"view"},{"type":"function","name":"omega_v","inputs":[],"outputs":[{"name":"","type":"bytes32","internalType":"bytes32"}],"stateMutability":"view"},{"type":"function","name":"register","inputs":[{"name":"participant","type":"address","internalType":"address"}],"outputs":[],"stateMutability":"nonpayable"},{"type":"function","name":"registrar","inputs":[],"outputs":[{"name":"","type":"address","internalType":"address"}],"stateMutability":"view"},{"type":"function","name":"reset","inputs":[{"name":"start","type":"uint256","internalType":"uint256"}],"outputs":[],"stateMutability":"nonpayable"},{"type":"function","name":"reveal1","inputs":[{"name":"_co","type":"bytes32","internalType":"bytes32"}],"outputs":[],"stateMutability":"nonpayable"},{"type":"function","name":"reveal1EndTime","inputs":[],"outputs":[{"name":"","type":"uint256","internalType":"uint256"}],"stateMutability":"view"},{"type":"function","name":"reveal2","inputs":[{"name":"_s","type":"bytes32","internalType":"bytes32"}],"outputs":[],"stateMutability":"nonpayable"},{"type":"function","name":"reveal2StartTime","inputs":[],"outputs":[{"name":"","type":"uint256","internalType":"uint256"}],"stateMutability":"view"},{"type":"function","name":"revealOrder","inputs":[{"name":"","type":"uint256","internalType":"uint256"}],"outputs":[{"name":"","type":"address","internalType":"address"}],"stateMutability":"view"},{"type":"function","name":"skipStalledUser","inputs":[],"outputs":[],"stateMutability":"nonpayable"},{"type":"function","name":"submitRevealOrder","inputs":[{"name":"_sortedAddresses","type":"address[]","internalType":"address[]"}],"outputs":[],"stateMutability":"nonpayable"},{"type":"event","name":"CommitSubmitted","inputs":[{"name":"participant","type":"address","indexed":true,"internalType":"address"},{"name":"cv","type":"bytes32","indexed":false,"internalType":"bytes32"}],"anonymous":false},{"type":"event","name":"Phase1Finalized","inputs":[{"name":"omega_v","type":"bytes32","indexed":false,"internalType":"bytes32"}],"anonymous":false},{"type":"event","name":"RandomnessGenerated","inputs":[{"name":"finalRandomness","type":"bytes32","indexed":false,"internalType":"bytes32"}],"anonymous":false},{"type":"event","name":"Reveal1Submitted","inputs":[{"name":"participant","type":"address","indexed":true,"internalType":"address"},{"name":"co","type":"bytes32","indexed":false,"internalType":"bytes32"}],"anonymous":false},{"type":"event","name":"RevealOrderEstablished","inputs":[{"name":"count","type":"uint256","indexed":false,"internalType":"uint256"}],"anonymous":false},{"type":"event","name":"SecretRevealed","inputs":[{"name":"participant","type":"address","indexed":true,"internalType":"address"},{"name":"s","type":"bytes32","indexed":false,"internalType":"bytes32"}],"anonymous":false},{"type":"event","name":"TurnSkipped","inputs":[{"name":"participant","type":"address","indexed":true,"internalType":"address"}],"anonymous":false}],"bytecode":{"object":"0x60e060405234801561000f575f5ffd5b50604051611c43380380611c4383398101604081905261002e91610048565b6001600160a01b031660c05260809190915260a05261008a565b5f5f5f6060848603121561005a575f5ffd5b83516020850151604086015191945092506001600160a01b038116811461007f575f5ffd5b809150509250925092565b60805160a05160c051611b736100d05f395f818161028901528181610a3b0152610b3901525f81816103f50152610ae201525f81816104280152610ab30152611b735ff3fe60806040526004361061017b575f3560e01c8063806de9b8116100cd578063b971e2fd11610087578063ec70d2b011610062578063ec70d2b01461047a578063eced028014610499578063ed03e8ae146104ba578063f14fcbc8146104ce575f5ffd5b8063b971e2fd14610417578063d66239751461044a578063e1e158a51461045f575f5ffd5b8063806de9b814610372578063889fd98914610391578063991fe0fb146103a6578063aece475f146103bb578063af640d0f146103cf578063b39773a6146103e4575f5ffd5b8063310bd74b116101385780634e64a4ab116101135780634e64a4ab146103205780635a57b6d8146103355780635a7013aa1461034a5780635e82ff651461035e575f5ffd5b8063310bd74b146102ce5780634420e486146102ed5780634476f62c1461030c575f5ffd5b8063015db0001461017f57806314b87862146101bb5780631abf8b30146102355780631e4f2e77146102575780632b20e397146102785780632d21c158146102ab575b5f5ffd5b34801561018a575f5ffd5b5061019e6101993660046118f4565b6104e1565b6040516001600160a01b0390911681526020015b60405180910390f35b3480156101c6575f5ffd5b506101cf610509565b6040516101b291905f610100820190508251151582526020830151602083015260408301516040830152606083015160608301526080830151608083015260a0830151151560a083015260c0830151151560c083015260e083015160e083015292915050565b348015610240575f5ffd5b506102496105d5565b6040516101b292919061190b565b348015610262575f5ffd5b50610276610271366004611994565b610725565b005b348015610283575f5ffd5b5061019e7f000000000000000000000000000000000000000000000000000000000000000081565b3480156102b6575f5ffd5b506102c060065481565b6040519081526020016101b2565b3480156102d9575f5ffd5b506102766102e83660046118f4565b610a30565b3480156102f8575f5ffd5b50610276610307366004611a05565b610b2e565b348015610317575f5ffd5b50610276610bce565b34801561032b575f5ffd5b506102c060025481565b348015610340575f5ffd5b506102c060095481565b348015610355575f5ffd5b506102c05f5481565b348015610369575f5ffd5b506102c0600581565b34801561037d575f5ffd5b5061027661038c3660046118f4565b610d22565b34801561039c575f5ffd5b506102c060075481565b3480156103b1575f5ffd5b506102c060085481565b3480156103c6575f5ffd5b50610276610fbb565b3480156103da575f5ffd5b506102c060035481565b3480156103ef575f5ffd5b506102c07f000000000000000000000000000000000000000000000000000000000000000081565b348015610422575f5ffd5b506102c07f000000000000000000000000000000000000000000000000000000000000000081565b348015610455575f5ffd5b506102c060015481565b34801561046a575f5ffd5b506102c067016345785d8a000081565b348015610485575f5ffd5b506102766104943660046118f4565b6112bf565b3480156104a4575f5ffd5b506104ad6114d2565b6040516101b29190611a46565b3480156104c5575f5ffd5b5061019e611513565b6102766104dc3660046118f4565b611542565b600581815481106104f0575f80fd5b5f918252602090912001546001600160a01b0316905081565b61054f6040518061010001604052805f151581526020015f81526020015f81526020015f81526020015f81526020015f151581526020015f151581526020015f81525090565b50600380545f90815260046020818152604080842033855282529283902083516101008082018652825460ff908116151583526001840154948301949094526002830154958201959095529481015460608601529182015460808501526005820154808216151560a086015292909204909116151560c08301526006015460e082015290565b6003545f908152600460205260409020600281015460609182918067ffffffffffffffff81111561060857610608611a6c565b604051908082528060200260200182016040528015610631578160200160208202803683370190505b5093508067ffffffffffffffff81111561064d5761064d611a6c565b604051908082528060200260200182016040528015610676578160200160208202803683370190505b5092505f5b8181101561071e575f83600201828154811061069957610699611a80565b905f5260205f20015f9054906101000a90046001600160a01b03169050808683815181106106c9576106c9611a80565b6001600160a01b039283166020918202929092018101919091529082165f908152908590526040902060040154855186908490811061070a5761070a611a80565b60209081029190910101525060010161067b565b5050509091565b6002806107306114d2565b600481111561074157610741611a32565b146107675760405162461bcd60e51b815260040161075e90611a94565b60405180910390fd5b60085461077657610776610fbb565b5f5f19815b84811015610901575f86868381811061079657610796611a80565b90506020020160208101906107ab9190611a05565b6003545f9081526004602090815260408083206001600160a01b0385168452909152902060058101549192509060ff166108365760405162461bcd60e51b815260206004820152602660248201527f4164647265737320696e206c69737420646964206e6f742072657665616c205060448201526568617365203160d01b606482015260840161075e565b83816004015411156108955760405162461bcd60e51b815260206004820152602260248201527f4c697374206e6f7420736f72746564206279206456616c2064657363656e64696044820152616e6760f01b606482015260840161075e565b6004810154600580546001810182555f919091527f036b6384b5eca791c62761152d0c79bb0604c104a5fb6f4eb0703f3154bb3db00180546001600160a01b0319166001600160a01b0385161790559350846108f081611adf565b9550506001909201915061077b9050565b505f805b6003545f9081526004602052604090206002015481101561098e576003545f9081526004602052604081206002810180549192918490811061094957610949611a80565b5f9182526020808320909101546001600160a01b0316835282019290925260400190206005015460ff1615610986578161098281611adf565b9250505b600101610905565b5060055481146109f15760405162461bcd60e51b815260206004820152602860248201527f4d697373696e672076616c6964207061727469636970616e747320696e206f7260448201526719195c881b1a5cdd60c21b606482015260840161075e565b426007556040518381527f95317bca8c04ccd06920b7b32f4f806489be04de8166d8f54b48136d74ac25da9060200160405180910390a1505050505050565b336001600160a01b037f00000000000000000000000000000000000000000000000000000000000000001614610a995760405162461bcd60e51b815260206004820152600e60248201526d37b7363c903932b3b4b9ba3930b960911b604482015260640161075e565b60038054905f610aa883611adf565b90915550610ad890507f000000000000000000000000000000000000000000000000000000000000000082611af7565b5f819055610b07907f000000000000000000000000000000000000000000000000000000000000000090611af7565b6001555f6006819055600781905560088190556009819055610b2b906005906118c6565b50565b336001600160a01b037f00000000000000000000000000000000000000000000000000000000000000001614610b975760405162461bcd60e51b815260206004820152600e60248201526d37b7363c903932b3b4b9ba3930b960911b604482015260640161075e565b6003545f9081526004602090815260408083206001600160a01b03909416835260019384019091529020805460ff19169091179055565b600380610bd96114d2565b6004811115610bea57610bea611a32565b14610c075760405162461bcd60e51b815260040161075e90611a94565b60055460065410610c4c5760405162461bcd60e51b815260206004820152600f60248201526e04e6f7468696e6720746f20736b697608c1b604482015260640161075e565b6005600754610c5b9190611af7565b4211610c9e5760405162461bcd60e51b8152602060048201526012602482015271151d5c9b881b9bdd081d1a5b5959081bdd5d60721b604482015260640161075e565b5f600560065481548110610cb457610cb4611a80565b5f9182526020822001546040516001600160a01b03909116925082917f86552a969cdb79ad70c67b7beb4e38dbbcda629916d69baf24ba7021a33c1c3091a260068054905f610d0283611adf565b90915550504260075560055460065403610d1e57610d1e6117dd565b5050565b600180610d2d6114d2565b6004811115610d3e57610d3e611a32565b14610d5b5760405162461bcd60e51b815260040161075e90611a94565b6003545f90815260046020908152604080832033845280835281842060019091019092529091205460ff16610dbe5760405162461bcd60e51b81526020600482015260096024820152681b9bdd08185919195960ba1b604482015260640161075e565b6003545f90815260046020908152604080832033845290915290205460ff16610e1a5760405162461bcd60e51b815260206004820152600e60248201526d1b9bdd081c9959da5cdd195c995960921b604482015260640161075e565b600581015460ff1615610e6f5760405162461bcd60e51b815260206004820152601860248201527f416c72656164792072657665616c656420706861736520310000000000000000604482015260640161075e565b5f839003610eae5760405162461bcd60e51b815260206004820152600c60248201526b0636f2063616e7420626520360a41b604482015260640161075e565b60018101545f03610ef05760405162461bcd60e51b815260206004820152600c60248201526b063762063616e7420626520360a41b604482015260640161075e565b60018101546040805160208101869052016040516020818303038152906040528051906020012014610f645760405162461bcd60e51b815260206004820152601960248201527f496e76616c696420636f6d6d69746d656e742072657665616c00000000000000604482015260640161075e565b6002810183905560058101805460ff1916600117905560405133907f26767c656be00bcd124af3ca80ecc3de0a6578579ed309fa97d4949f4dca3a1990610fae9086815260200190565b60405180910390a2505050565b60605f5b6003545f90815260046020526040902060020154811015611067576003545f9081526004602052604081206002810180548391908590811061100357611003611a80565b5f9182526020808320909101546001600160a01b031683528201929092526040019020600581015490915060ff161561105e57600281015460405161104c918591602001611b10565b60405160208183030381529060405292505b50600101610fbf565b505f8151116110b85760405162461bcd60e51b815260206004820152601b60248201527f4e6f2076616c69642072657665616c7320696e20506861736520310000000000604482015260640161075e565b8051602082012060088190556040517f1a8d78f41d349a20d4d3dcb351668267bb604856701fc842850df53514a3cc4b916110f69190815260200190565b60405180910390a16008545f8190036111515760405162461bcd60e51b815260206004820152601760248201527f6f6d656761496e742063616e6e6f74206265206e756c6c000000000000000000604482015260640161075e565b5f5b6003545f908152600460205260409020600201548110156112ba576003545f9081526004602052604081206002810180548391908590811061119757611197611a80565b5f9182526020808320909101546001600160a01b031683528201929092526040019020600581015490915060ff16156112b15760018101545f8190036112155760405162461bcd60e51b81526020600482015260136024820152721c0b98dd8818d85b9b9bdd081899481b9d5b1b606a1b604482015260640161075e565b5f81851161122c576112278583611b2a565b611236565b6112368286611b2a565b90508060405160200161124b91815260200190565b60408051601f198184030181529190528051602090910120600484018190555f036112ae5760405162461bcd60e51b81526020600482015260136024820152721c0b98dd8818d85b9b9bdd081899481b9d5b1b606a1b604482015260640161075e565b50505b50600101611153565b505050565b6003806112ca6114d2565b60048111156112db576112db611a32565b146112f85760405162461bcd60e51b815260040161075e90611a94565b600554600654106113435760405162461bcd60e51b8152602060048201526015602482015274105b1b081c995d99585b1cc81c1c9bd8d95cdcd959605a1b604482015260640161075e565b60056007546113529190611af7565b421061136057611360610bce565b5f60056006548154811061137657611376611a80565b5f918252602090912001546001600160a01b031690503381146113cb5760405162461bcd60e51b815260206004820152600d60248201526c2737ba103cb7bab9103a3ab93760991b604482015260640161075e565b6003545f90815260046020908152604080832033845282529182902060028101548351928301879052909290910160405160208183030381529060405280519060200120146114545760405162461bcd60e51b8152602060048201526015602482015274125b9d985b1a59081cd958dc995d081c995d99585b605a1b604482015260640161075e565b6003810184905560058101805461ff00191661010017905560068054905f61147b83611adf565b90915550504260075560405184815233907f4598d19699695a119c458e9614911f749d7dbaf95a03ad1779793482d32755b39060200160405180910390a2600554600654036114cc576114cc6117dd565b50505050565b5f5f544210156114e157505f90565b6001544210156114f15750600190565b6005545f036115005750600290565b60095461150d5750600390565b50600490565b5f60056006548154811061152957611529611a80565b5f918252602090912001546001600160a01b0316919050565b5f8061154c6114d2565b600481111561155d5761155d611a32565b1461157a5760405162461bcd60e51b815260040161075e90611a94565b67016345785d8a00003410156115c95760405162461bcd60e51b8152602060048201526014602482015273125b9cdd59999a58da595b9d0819195c1bdcda5d60621b604482015260640161075e565b6003545f90815260046020908152604080832033845290915290205460ff161561162a5760405162461bcd60e51b8152602060048201526012602482015271105b1c9958591e481c9959da5cdd195c995960721b604482015260640161075e565b6003545f90815260046020908152604080832033845260010190915290205460ff166116845760405162461bcd60e51b81526020600482015260096024820152681b9bdd08185919195960ba1b604482015260640161075e565b5f8290036116c35760405162461bcd60e51b815260206004820152600c60248201526b063762063616e7420626520360a41b604482015260640161075e565b604080516101008082018352600180835260208084018781525f858701818152606087018281526080880183815260a0890184815260c08a018581523460e08c019081526003805488526004808b528e892033808b52908c528f8a209e518f5460ff1916901515178f5599518e8d015596516002808f019190915595518d82015593518c870155915160058c018054925161ffff1990931691151561ff00191691909117911515909a0217909855965160069098019790975594548152938252858420909401805492830181558352918290200180546001600160a01b03191683179055915184815290917f5a535d3e2551e12d386f4ddc23831403dcc44673683c17620c115a9f75908322910160405180910390a25050565b60605f5b60055481101561187c576003545f908152600460205260408120600580548391908590811061181257611812611a80565b5f9182526020808320909101546001600160a01b031683528201929092526040019020600581015490915060ff6101009091041615611873576003810154604051611861918591602001611b10565b60405160208183030381529060405292505b506001016117e1565b508051602082012060098190556040517f35c250167b84b14a1b98b45f2aa4886bb1968338305f1d1ff95de4a3f3723e31916118bb9190815260200190565b60405180910390a150565b5080545f8255905f5260205f2090810190610b2b91905b808211156118f0575f81556001016118dd565b5090565b5f60208284031215611904575f5ffd5b5035919050565b604080825283519082018190525f9060208501906060840190835b8181101561194d5783516001600160a01b0316835260209384019390920191600101611926565b5050838103602080860191909152855180835291810192508501905f5b8181101561198857825184526020938401939092019160010161196a565b50919695505050505050565b5f5f602083850312156119a5575f5ffd5b823567ffffffffffffffff8111156119bb575f5ffd5b8301601f810185136119cb575f5ffd5b803567ffffffffffffffff8111156119e1575f5ffd5b8560208260051b84010111156119f5575f5ffd5b6020919091019590945092505050565b5f60208284031215611a15575f5ffd5b81356001600160a01b0381168114611a2b575f5ffd5b9392505050565b634e487b7160e01b5f52602160045260245ffd5b6020810160058310611a6657634e487b7160e01b5f52602160045260245ffd5b91905290565b634e487b7160e01b5f52604160045260245ffd5b634e487b7160e01b5f52603260045260245ffd5b6020808252601d908201527f496e76616c696420506861736520666f72207468697320616374696f6e000000604082015260600190565b634e487b7160e01b5f52601160045260245ffd5b5f60018201611af057611af0611acb565b5060010190565b80820180821115611b0a57611b0a611acb565b92915050565b5f83518060208601845e9190910191825250602001919050565b81810381811115611b0a57611b0a611acb56fea26469706673582212200f14b05f6494220cadec29a565965835089184ae6aca660d93cb69979c235d4064736f6c634300081e0033","linkReferences":{}},"methodIdentifiers":{"COMMIT_DURATION()":"b971e2fd","MIN_DEPOSIT()":"e1e158a5","REVEAL_DURATION()":"b39773a6","TURN_TIMEOUT()":"5e82ff65","calculateIntermediateValues()":"aece475f","commit(bytes32)":"f14fcbc8","commitEndTime()":"5a7013aa","currentRevealIndex()":"2d21c158","getCurrentRevealer()":"ed03e8ae","getParticipant()":"14b87862","getParticipantsAndDVals()":"1abf8b30","getPhase()":"eced0280","id()":"af640d0f","lastTurnActionTime()":"889fd989","omega_o()":"5a57b6d8","omega_v()":"991fe0fb","register(address)":"4420e486","registrar()":"2b20e397","reset(uint256)":"310bd74b","reveal1(bytes32)":"806de9b8","reveal1EndTime()":"d6623975","reveal2(bytes32)":"ec70d2b0","reveal2StartTime()":"4e64a4ab","revealOrder(uint256)":"015db000","skipStalledUser()":"4476f62c","submitRevealOrder(address[])":"1e4f2e77"},"id":17}